HI-TECH Software PICC Compiler V9.50PL1

Linker command line:

-h+FrontPanel.sym -z -Q16F877A -ol.obj -MFrontPanel.map -E1 \
  -ver=PICC#V9.50PL1 -ACODE=00h-07FFhx4 -ACONST=00h-0FFhx32 \
  -AENTRY=00h-0FFhx32 -ASTRING=00h-0FFhx32 -ABANK0=020h-07Fh \
  -ABANK1=0A0h-0EFh -ABANK2=0110h-016Fh -ABANK3=0190h-01EFh \
  -ACOMBANK=070h-07Fh \
  -preset_vec=00h,intentry=04h,intcode,intret,init,init23,end_init,clrtext,maintext,stringtable,pstrings,strings \
  -prbit_0=BANK0,rbss_0=BANK0,rdata_0=BANK0,idata_0=CODE -pnvram=BANK0 \
  -prbit_1=BANK1,rbss_1=BANK1,rdata_1=BANK1,idata_1=CODE \
  -pnvram_1=BANK1,nvbit_1=BANK1 \
  -prbit_2=BANK2,rbss_2=BANK2,rdata_2=BANK2,idata_2=CODE \
  -pnvram_2=BANK2,nvbit_2=BANK2 \
  -prbit_3=BANK3,rbss_3=BANK3,rdata_3=BANK3,idata_3=CODE \
  -pnvram_3=BANK3,nvbit_3=BANK3 -ptemp=COMBANK -ACONFIG=02007h-02007h \
  -pconfig=CONFIG -AIDLOC=02000h-02003h -pidloc=IDLOC \
  -AEEDATA=00h-0FFh/02100h -peeprom_data=EEDATA \
  -pfloat_text0=CODE,float_text1=CODE,float_text2=CODE \
  -pfloat_text3=CODE,float_text4=CODE -pintsave_0=COMBANK -pintsave_1=BANK1 \
  -pintsave_2=BANK2 -pintsave_3=BANK3 \
  C:\DOCUME~1\ADMINI~1\LOCALS~1\Temp\s340.obj \
  Z:\128-2(RECEIVER)\FrontPanel(Weather)\FrontPanel.obj \
  C:\Program Files\HI-TECH Software\PICC\9.50\lib\pic62--u.lib \
  C:\Program Files\HI-TECH Software\PICC\9.50\lib\pic42cdc.lib \
  C:\Program Files\HI-TECH Software\PICC\9.50\lib\pic62--u.lib 

Object code version is 3.7

Machine type is 16F877A

Call graph:

*_main size 0,1 offset 0
*    _DelayMS size 2,2 offset 13
     _LCD1602_Init size 0,0 offset 1
         _DelayMS size 2,2 offset 13
         _Write_LCD_Comd8 size 0,3 offset 1
             _DelayMS size 2,2 offset 13
         _Write_LCD_Comd4 size 0,4 offset 9
             _DelayMS size 2,2 offset 13
*    _Write_LCD_Mult_Byte size 4,4 offset 1
*        _DelayMS size 2,2 offset 13
*        _Write_LCD_Comd4 size 0,4 offset 9
*            _DelayMS size 2,2 offset 13
*        _Write_LCD_Data4 size 0,4 offset 9
*            _DelayMS size 2,2 offset 13
         string_table size 0,0 offset 9
     _UpdateLED size 0,1 offset 1
*    _Write_LCD_Comd4 size 0,4 offset 9
*        _DelayMS size 2,2 offset 13
*    _ShowMenu1 size 0,0 offset 1
*        _Write_LCD_Mult_Byte size 4,4 offset 1
*            _DelayMS size 2,2 offset 13
*            _Write_LCD_Comd4 size 0,4 offset 9
*                _DelayMS size 2,2 offset 13
*            _Write_LCD_Data4 size 0,4 offset 9
*                _DelayMS size 2,2 offset 13
             string_table size 0,0 offset 9
*    _ShowMenu2 size 0,0 offset 1
*        _Write_LCD_Mult_Byte size 4,4 offset 1
*            _DelayMS size 2,2 offset 13
*            _Write_LCD_Comd4 size 0,4 offset 9
*                _DelayMS size 2,2 offset 13
*            _Write_LCD_Data4 size 0,4 offset 9
*                _DelayMS size 2,2 offset 13
             string_table size 0,0 offset 9
*_IntHandler size 0,0 offset 17

		Name          Link     Load   Length Selector Space Scale
C:\DOCUME~1\ADMINI~1\LOCALS~1\Temp\s340.obj
		reset_vec        0        0        3       0     0
		init             5        5       10       8     0
		end_init        15       15       18       8     0
		temp            70       70        1      70     1
Z:\128-2(RECEIVER)\FrontPanel(Weather)\FrontPanel.obj
		intcode          4        4        1       8     0
		idata_0        7F4      7F4        C     FE8     0
		rdata_0         31       31        C      20     1
		config        2007     2007        1    400E     0
		rbss_1          A0       A0       40      A0     1
		strings         43       43       66       8     0
		temp            70       70        2      70     1
		text10         506      506      2EE     A0C     0
		text3          4F2      4F2       14     9E4     0
		text0          4E4      4E4        E     9C8     0
		text1          4DF      4DF        5     9BE     0

C:\Program Files\HI-TECH Software\PICC\9.50\lib\pic62--u.lib

C:\Program Files\HI-TECH Software\PICC\9.50\lib\pic42cdc.lib
btemp0.obj      temp            70       70        1      70     1
btemp1.obj      temp            70       70        2      70     1
codeptr.obj     
stringtab.obj   stringtab       2D       2D       16       8     0
		code_ptr        3D       3D        2      20     1

C:\Program Files\HI-TECH Software\PICC\9.50\lib\pic62--u.lib

COMMON          rbss_0          20       20       11      20     1

TOTAL		Name          Link     Load   Length
	CLASS	CODE     
		intcode          4        4        1
		reset_vec        0        0        3
		idata_0        7F4      7F4        C
		init             5        5       10
		end_init        15       15       18
		text10         506      506      2EE
		text3          4F2      4F2       14
		text0          4E4      4E4        E
		text1          4DF      4DF        5

	CLASS	CONST    

	CLASS	ENTRY    
		stringtab       2D       2D       16

	CLASS	STRING   
		strings         43       43       66

	CLASS	BANK0    
		rdata_0         31       31        C
		rbss_0          20       20       11
		temp            70       70        2
		code_ptr        3D       3D        2

	CLASS	BANK1    
		rbss_1          A0       A0       40

	CLASS	BANK2    

	CLASS	BANK3    

	CLASS	COMBANK  

	CLASS	CONFIG   
		config        2007     2007        1

	CLASS	IDLOC    

	CLASS	EEDATA   



SEGMENTS	Name		Load	Length	 Top	Selector    Space Class

		reset_vec       000000	000003	000003	       0       0  CODE    
		intentry        000004	0000A5	0000A9	       8       0  CODE    
		rbit_0          000020	00001F	00003F	      20       1  BANK0   
		temp            000070	000002	000072	      70       1  COMBANK 
		rbit_1          0000A0	000040	0000E0	      A0       1  BANK1   
		text1           0004DF	000005	0004E4	     9BE       0  CODE    
		text0           0004E4	00000E	0004F2	     9C8       0  CODE    
		text3           0004F2	000014	000506	     9E4       0  CODE    
		text10          000506	0002EE	0007F4	     A0C       0  CODE    
		idata_0         0007F4	00000C	000800	     FE8       0  CODE    
		config          002007	000001	002008	    400E       0  CONFIG  


UNUSED ADDRESS RANGES

	BANK0            003F-006F
	                 0072-007F
	BANK1            00E0-00EF
	BANK2            0110-016F
	BANK3            0190-01EF
	CODE             0003-0003
	                 00A9-04DE
	                 0800-1FFF
	COMBANK          0072-007F
	CONST            0003-0003
	                 00A9-04DE
	                 0800-1FFF
	EEDATA           2100-21FF
	ENTRY            0003-0003
	                 00A9-04DE
	                 0800-1FFF
	IDLOC            2000-2003
	STRING           0003-0003
	                 00A9-04DE
	                 0800-1FFF

                                  Symbol Table

?_DelayMS              rbss_0      002D
?_Write_LCD_Mult_Byte  rbss_0      0021
?a_Delay140us          rbss_0      0020
?a_DelayMS             rbss_0      002F
?a_DelayUS             rbss_0      0020
?a_Read_LCD_Busy       rbss_0      0020
?a_UpdateLED           rbss_0      0021
?a_Write_LCD_Comd4     rbss_0      0029
?a_Write_LCD_Comd8     rbss_0      0021
?a_Write_LCD_Data4     rbss_0      0029
?a_Write_LCD_Mult_Byte rbss_0      0025
?a_main                rbss_0      0020
_CommBuf               rbss_1      00A0
_Delay140us            text0       04E4
_DelayMS               text10      05A9
_DelayUS               text1       04DF
_IntHandler            intcode     0004
_LCD1602_Init          text10      06BA
_Menu0                 rdata_0     0031
_Menu1                 rdata_0     0033
_Menu2                 rdata_0     0035
_Menu3                 rdata_0     0037
_Menu4                 rdata_0     0039
_Menu5                 rdata_0     003B
_Read_LCD_Busy         text3       04F2
_ShowMenu1             text10      0519
_ShowMenu2             text10      0506
_UpdateLED             text10      052C
_Write_LCD_Comd4       text10      05F6
_Write_LCD_Comd8       text10      05C3
_Write_LCD_Data4       text10      0658
_Write_LCD_Mult_Byte   text10      070F
__Beeprom_data         eeprom_data 2100
__Bnvbit_0             nvbit_0     0190
__Bnvbit_1             nvbit_1     00E0
__Bnvbit_2             nvbit_2     0110
__Bnvbit_3             nvbit_3     0190
__Brbit_0              rbit_0      0020
__Brbit_1              rbit_1      00A0
__Brbit_2              rbit_2      0110
__Brbit_3              rbit_3      0190
__Hclrtext             clrtext     002D
__Hcode                code        0190
__Hcode_ptr            code_ptr    003F
__Hcommon_ram          common_ram  0190
__Hconfig              config      2008
__Heeprom_data         eeprom_data 0000
__Hend_init            end_init    002D
__Hfloat_text0         float_text0 0003
__Hfloat_text1         float_text1 0003
__Hfloat_text2         float_text2 0003
__Hfloat_text3         float_text3 0003
__Hfloat_text4         float_text4 0003
__Hidata_0             idata_0     0800
__Hidata_1             idata_1     0003
__Hidata_2             idata_2     0003
__Hidata_3             idata_3     0003
__Hidloc               idloc       2000
__Hinit                init        0015
__Hinit23              init23      0015
__Hintcode             intcode     0005
__Hintentry            intentry    0004
__Hintret              intret      0005
__Hintsave             intsave     0190
__Hintsave_0           intsave_0   0072
__Hintsave_1           intsave_1   00E0
__Hintsave_2           intsave_2   0110
__Hintsave_3           intsave_3   0190
__Hmaintext            maintext    002D
__Hnvbit_0             nvbit_0     0C80
__Hnvbit_1             nvbit_1     0700
__Hnvbit_2             nvbit_2     0880
__Hnvbit_3             nvbit_3     0C80
__Hnvram               nvram       003D
__Hnvram_1             nvram_1     00E0
__Hnvram_2             nvram_2     0110
__Hnvram_3             nvram_3     0190
__Hpowerup             powerup     0190
__Hpstrings            pstrings    0043
__Hrbit_0              rbit_0      0100
__Hrbit_1              rbit_1      0500
__Hrbit_2              rbit_2      0880
__Hrbit_3              rbit_3      0C80
__Hrbss_0              rbss_0      0031
__Hrbss_1              rbss_1      00E0
__Hrbss_2              rbss_2      0110
__Hrbss_3              rbss_3      0190
__Hrdata_0             rdata_0     003D
__Hrdata_1             rdata_1     00E0
__Hrdata_2             rdata_2     0110
__Hrdata_3             rdata_3     0190
__Hreset_vec           reset_vec   0003
__Hstrings             strings     00A9
__Hstringtable         stringtable 0043
__Hstruct              struct      003F
__Htemp                temp        0072
__Htext                text        0190
__Lclrtext             clrtext     002D
__Lcode                code        0190
__Lcode_ptr            code_ptr    003D
__Lcommon_ram          common_ram  0190
__Lconfig              config      2007
__Leeprom_data         eeprom_data 0000
__Lend_init            end_init    0015
__Lfloat_text0         float_text0 0003
__Lfloat_text1         float_text1 0003
__Lfloat_text2         float_text2 0003
__Lfloat_text3         float_text3 0003
__Lfloat_text4         float_text4 0003
__Lidata_0             idata_0     07F4
__Lidata_1             idata_1     0003
__Lidata_2             idata_2     0003
__Lidata_3             idata_3     0003
__Lidloc               idloc       2000
__Linit                init        0005
__Linit23              init23      0015
__Lintcode             intcode     0004
__Lintentry            intentry    0004
__Lintret              intret      0005
__Lintsave             intsave     0190
__Lintsave_0           intsave_0   0072
__Lintsave_1           intsave_1   00E0
__Lintsave_2           intsave_2   0110
__Lintsave_3           intsave_3   0190
__Lmaintext            maintext    002D
__Lnvbit_0             nvbit_0     0C80
__Lnvbit_1             nvbit_1     0700
__Lnvbit_2             nvbit_2     0880
__Lnvbit_3             nvbit_3     0C80
__Lnvram               nvram       003D
__Lnvram_1             nvram_1     00E0
__Lnvram_2             nvram_2     0110
__Lnvram_3             nvram_3     0190
__Lpowerup             powerup     0190
__Lpstrings            pstrings    0043
__Lrbit_0              rbit_0      0100
__Lrbit_1              rbit_1      0500
__Lrbit_2              rbit_2      0880
__Lrbit_3              rbit_3      0C80
__Lrbss_0              rbss_0      0020
__Lrbss_1              rbss_1      00A0
__Lrbss_2              rbss_2      0110
__Lrbss_3              rbss_3      0190
__Lrdata_0             rdata_0     0031
__Lrdata_1             rdata_1     00E0
__Lrdata_2             rdata_2     0110
__Lrdata_3             rdata_3     0190
__Lreset_vec           reset_vec   0000
__Lstrings             strings     0043
__Lstringtable         stringtable 002D
__Lstruct              struct      003F
__Ltemp                temp        0070
__Ltext                text        0190
__S0                   (abs)       2008
__S1                   (abs)       0190
__S2                   (abs)       2100
_exit                  init        0005
_main                  text10      073F
clear_bank0            init        0005
clear_bank1            init        0011
clear_bit0             init        0005
clear_bit1             init        0011
clear_ram              end_init    001B
code_ptr               code_ptr    003D
copy_bank0             init        0009
copy_data              end_init    0020
int_entry              intentry    0004
int_func               intcode     0004
intlevel0              intentry    0004
intlevel1              intentry    0004
reset_vec              reset_vec   0000
start                  init        0005
string_indir           stringtable 0030
string_table           stringtable 002D
used_btemp0            (abs)       0001
used_btemp1            (abs)       0001
used_code_ptr          (abs)       0001
