:020000040000fa
:080000001c01040000000000d7
:020000040000fa
:1002000000000000000000000000000000000000ee
:1002100000000000000000000000000000000000de
:1002200000000000000000000000000000000000ce
:1002300000000000000000008fb12000a0ff20009f
:100240000001880000000000050007000c00070006
:10025000ea2c0200000000000040da000000fe006e
:100260004440a900c0b620000000e00003003200b6
:1002700000002000a00188004440a8000000060003
:10028000e0e123000100200016003700620040007a
:10029000e0804800910188009001ba0062004000af
:1002a000e0804800910188009002ba00620040009e
:1002b000e08048000002eb006028e10005003a0001
:1002c0008301e90007003300038009000059eb00b7
:1002d000040037006128e100010032000082eb00d9
:1002e00005000700910188001001ba000200e0003b
:1002f000e6ff3a00000005009101880080027800c6
:1003000062004000e08048003559ba008301e900ee
:10031000080032002559ba008301e90005003200c7
:100320000400e000f4ff320015d9ba008301e900af
:10033000f1ff3a0000000600889fbe0080047800ac
:100340000100780002047800890178001100200083
:100350009500070089007800880f500001003200e6
:100360008000eb00010078004f04be000000060092
:100370000000fa004fb99700e88157008182200001
:10038000c0192000e00007000080fa00000006000d
:1003900081822000910107000000e0000500350087
:1003a00081822000a0002000050007000000e0007e
:1003b00002003d000080eb00000006000000050088
:1003c000889fbe000104780080447800c10090003e
:1003d00068009000808f5000050039000800780008
:1003e000c80107008080eb000000e0001600350027
:1003f000e80044001100780009587800800878006f
:100400001800780000b8a30004003a0000a8a30078
:1004100007003200eacf540005003a0008007800d7
:10042000fd0107008080eb000000e00006003a00bc
:1004300000c0200018006000020032004800900058
:10044000600498008980fb00010078004f04be0022
:10045000000006000e00fa00889fbe008a9fbe00c2
:100460008c1f7800c0b79f00010478000205be0011
:100470008004780078805700230207006806600037
:100480000030a100e10f500014003a00f88157003d
:10049000b3007800000278000801780009007800b5
:1004a0009b0207000000e00002003a006000b80074
:1004b000030037007fb097008fb89700380f070010
:1004c00090bf9f00a1bf9f005fb19700efb1970061
:1004d0000a0141008b81490016003700e20f5000ed
:1004e00018003a00f8815700b3007800140020008b
:1004f00008017800090078006b0307000000e000a5
:1005000002003a006000b800030037007fb0970097
:100510008fb89700220f070090bf9f00a1bf9f00d8
:100520005fb19700efb197006e8057005604070047
:100530000a01be001fb89700afb89700bf040700bc
:100540000d003700e30f500003003a0000002000c8
:1005500001f8270004003700e40f500005003a00be
:10056000f0ff2f00f1ff270090bf9f00a1bf9f0069
:10057000030037006000b80090bf9f00a1bf9f003c
:100580001fb89700afb897000c00e00001003200e0
:1005900001f0a2004f0678004f05be004f04be00d8
:1005a0000080fa0000000600e4874700889fbe0034
:1005b0008a9fbe008c9fbe008e1f780081bf9f0067
:1005c0008200780083047800000778000fb9970054
:1005d0000116b8008c0578000001eb000c00e0006b
:1005e00042003200010178008fb997000300e0005b
:1005f0003e0032000c00e0002e003200c9009000e6
:1006000069009000808f50000400390009007800d4
:100610003c0107000000e0002600350019a8a300f7
:10062000060032000b017800a10020000e007800c7
:10063000ff04070000057800010037000005eb000b
:100640000b0478000a00e000020032000e005500a2
:100650000004e80069009000c90190000300500008
:10066000880f5000020031000005eb000004780004
:10067000080178008e00780003007800f504070078
:100680000807470088855500490090000800400091
:10069000c00498000a00e00004003200090078005d
:1006a0005d0107000000e00002003a000b00e000de
:1006b000d2ff3a0019b8a300020032000900780006
:1006c0005501070000c02000190060000200320040
:1006d00049009000e00498000b0056008fb9970085
:1006e000110009000380d8000001780002007800a2
:1006f0004f0778004f06be004f05be004f04be00f6
:100700004f00b100000006006200fa00889fbe00a2
:100710008a9fbe000004be000205780083007800b6
:100720006a805700d2040700f88f9f0089979f00c6
:100730000000eb00909f9f001a80fb008005fb00eb
:100740000000ea00cf04de00090478005002200017
:10075000808f550001003a000904e9000800e0001c
:100760000c0034000f909700080178008a00780090
:10077000ff8997000300010080979f008080eb00b5
:100780000000e000900032001f9897000800400031
:10079000909f9f000905450050022000808f550062
:1007a000040032000b00e000e3ff3a009f9897003e
:1007b000850037000000eb00f0979f00e0979f0056
:1007c000d0979f00c0979f00b0979f00a0979f0071
:1007d000b09f9f0009003700a09f200000805000bc
:1007e0000000d00001a0200001004000bf98970049
:1007f00090807000b19f9f000a05e8009a00fb00fe
:10080000a09f20009c040700800078000000e0000a
:10081000f1ff3a00a0c2b3009a4f10000e003a0058
:100820003fb897000080e900b0bf9f00100078003b
:10083000a09f9f000000e00005003d000000ea00ce
:10084000a09f9f003f9897000020a000b09f9f00ae
:100850000a05e80011003700a19f9f000b00370038
:10086000af989700f0ff2700808f500006003200fd
:100870006a09b9001a00fb000200400001fd2f00c8
:1008800001004000a09f9f000a05e8001a00fb003d
:10089000810407000000e000f1ff3a00e0c2b3006d
:1008a0009a4f1000030032000080eb00809f9f00f1
:1008b0001c003700a0c2b300da4f100007003a0056
:1008c0003fb897000080e900b0bf9f00100078009b
:1008d000809f9f000a05e800120037000000eb002f
:1008e000809f9f000b0037008f989700f0ff270034
:1008f000808f5000060032006a09b9001a00fb0020
:100900000200400001fd2f0001004000809f9f0079
:100910000a05e8001a00fb005f0407000000e00081
:10092000f1ff3a009a00fb00e0a520005204070006
:100930008040eb000000e00001003200ba40780087
:10094000817f9f0080c6b30080cf500004003a0032
:100950009acf100002003a006640500007003700ae
:100960008f789700c0c6b30080cf500005003a00d2
:100970009acf100003003a0065404000807f9f003e
:100980000a05e800a0fb2f00008447003a417800e8
:1009900088017800ea80570060f92f000f004000be
:1009a000430407000000e00006003a0088007800d9
:1009b00060f92f000f004000ed0507000000e00087
:1009c0005dff3d008080eb00010078004f05be0018
:1009d0004f04be000080fa0000000600889fbe00a1
:1009e0008a9fbe0000057800810478001004e000b2
:1009f00030003200c900900069009000808f5000e4
:100a000004003900090078003e0007000000e00003
:100a10003000350019a8a30005003200a100200015
:100a20000a007800a0060700800578000100370062
:100a30008005eb000b00e000030032000a80550047
:100a40000004e800030037000a007800a006070051
:100a50000004780069009000c90190000300500074
:100a6000880f5000020031008005eb000004780080
:100a7000080178008a00780003007800f503070079
:100a8000080545004900900008004000c004980097
:100a90000b00e00005003200090078005e0007004e
:100aa0008080eb000000e00012003a001a04e00031
:100ab000d0ff3a0019b8a3000800320009007800fe
:100ac000550007008080eb000000e00009003a00bc
:100ad000020037008080eb000600370000c02000d5
:100ae000190060000200320049009000e004980004
:100af0008000eb00010078004f05be004f04be00ef
:100b000000000600889fbe0000047800c00190002d
:100b1000600090008000eb00808f51003b003900a6
:100b2000180178002000290000006100e20f500049
:100b300009003200020078000090a0000200e000ee
:100b4000020035000020240000007100000c780035
:100b50008080eb002d0037000100260001006100bd
:100b6000810f500008003a0038009000808f51003b
:100b70000500390008007800270007008080eb009e
:100b80000000e00021003a0000c0200018006000d2
:100b900017003a006002200008004000a8049000fe
:100ba000808f540012003a000020200088060700c1
:100bb00080007800200498000000e00005003a0062
:100bc00029049800490498000900e80030049800be
:100bd000060037001860a000400498000020b00014
:100be00030049800410c9800510c9800af060700a3
:100bf000280090005004980038009000600498008d
:100c000000002600180c70008000eb000100780046
:100c10004f04be0000000600889fbe00000478005c
:100c20000000e0000f003a006044b8000800d00067
:100c300081872000608078000000e000040032001e
:100c4000f5ff07000000e00001003d008084eb009c
:100c50000804e80009007800e70f540028003c0071
:100c6000f2ff370010d8a30024003200a004900047
:100c700040009000808f54000b00310009015000ab
:100c8000384090000000fb0089007800ec0c070061
:100c90000000e0001100340080844400480090000f
:100ca000808f5400f5ff3900280090004004980020
:100cb0009800780000c02000008060000200320030
:100cc000a804900001003700b804900001e8a300d8
:100cd000090032006904980008003700a80090005d
:100ce0004104980061049800510c98001890a000ed
:100cf0000080eb0002003700590c98000000eb0068
:100d00004f04be0000000600889fbe008a9fbe0000
:100d10008c1f7800000678008105780010047800a8
:100d20000005eb00010037000804e8001800fb0094
:100d3000a20607000000e000fbff3a0098407800a0
:100d4000d0c2b30080cf500002003a008a002000d9
:100d500003003700b0c2b30080cf500001003a005a
:100d60000804e80098407800e2c6b30082cf500043
:100d700003003200e3c4b30083cf50001f003a00e9
:100d8000d840780010c6b30080cf50000300320076
:100d900010c4b30080cf50002a003a00d840780039
:100da00082cf500003003200e0c4b30080cf500077
:100db00024003a000804e800880478004a00200073
:100dc00080c2b300984f100007003a005900fb00a2
:100dd000820607000000e000fcff3a00f0c5b30007
:100de000994f1000f9ff320090c2b300994f1000e4
:100df0003c003a000904e8003a00370090c6b3000e
:100e000080cf50000300320090c4b30080cf500068
:100e100038003a0058407800824f500002003200fb
:100e2000834f500007003a00d840780060c6b300f6
:100e300080cf50000600320060c4b30080cf500065
:100e4000030032001c0478000005eb002500370089
:100e50003a00b300d840780093c6b30083cf500067
:100e60000300320090c4b30080cf50001d003a0050
:100e70008800e80011417800e0c6b300804f5100bf
:100e800003003200e0c4b300804f510015003a0067
:100e900051417800834f51000300320090c4b300e9
:100ea000804f51000f003a005141780040c7b30015
:100eb000804f51000300320040c5b300804f510005
:100ec00008003a005141780090c7b300804f5100ac
:100ed0000300320090c5b300804f510001003a007a
:100ee0000104e8000b00e00003003200880d7800e8
:100ef000010037000a00a000080e78000a00780000
:100f00004f0678004f05be004f04be0000000600eb
:100f1000e6874700889fbe008a9fbe008c9fbe0068
:100f20008e1f7800f0b79f000105780082bf9f00f8
:100f300003067800830478006920b9000004780073
:100f40008006eb0000c3b3009a4f100003003a0084
:100f50001d002000da4f1000fdff32008005eb007d
:100f6000000eeb003c16780028003700888f5500f3
:100f700016003d0092002000110009008205d800f3
:100f8000010078000000e00003003a00e48444001f
:100f9000800ceb00b91478001900be00a2002000fc
:100fa00003002000420d07001a4178000201fb00f7
:100fb000cf91de0000004100818049000003b100b4
:100fc0000180b100808cbe000d00370010002000b1
:100fd000010020001c0e40005c964800888f5500e0
:100fe00008003a0040c3b3009a4f100005003400d7
:100ff0001200200003002000990c4100d994490000
:101000008b05e8000a05e8001d0020001a00fb001f
:10101000a10207000000e000d4ff3a008b0f54004b
:1010200001003d0088057800e0c2b3009a4f10002f
:1010300001003a000a05e8000b00e00029003a0030
:1010400000c3b3009a4f100026003a000081eb0065
:101050008081eb001c0e41005c9649001d002000c1
:10106000da4f1000f9ff32001e003700888f55005c
:101070001a003d0092002000110009008205d800ee
:10108000010078000000e00003003a00e48444001e
:10109000800ceb00b91478001900be00a2002000fb
:1010a00003002000020d07001a4178000201fb0036
:1010b000cf91de0000004100818049000003b100b3
:1010c0000180b100808cbe008b05e8000080eb0041
:1010d0008080eb001c0e40005c9648000a05e8008a
:1010e0001d0020001a00fb006b0207000000e0005a
:1010f000deff3a0092002000110009008205d800ae
:10110000010478000800e0001000320069041400b7
:101110001902be00e00f5200e08f5a0007003200b3
:101120006440b800c29b2000020040001001be00d5
:101130000400be00de0c0700808cbe0088854500e0
:101140006140b9001c1e10001c961800e88f550065
:10115000100034001900be00e00f5000e08f58006e
:101160000c003a00e98555009000200001002000a5
:101170001c0e40005c964800e4845400e88f550043
:10118000040034001900be00e00f5000e08f58004a
:10119000f4ff32000d00e000310032009a40780088
:1011a00050c6b30080cf50000300320050c4b300db
:1011b00080cf50002a003a00da407800b0c2b30075
:1011c00080cf5000040032000047780000c0e800e3
:1011d00080cf500002003a00014778000a05e8007d
:1011e0006044b8008006eb0012003700f00f2e00bc
:1011f000515f2000800f5400818f5c000b003c0089
:10120000a2002000030020000800be00a80c070078
:101210001a4178000201fb00cf91de00000441007a
:10122000818449000803b1000980b1000a05e80083
:101230001d0020001a00fb00170207000000e0005c
:10124000eaff3a00d0c2b300804f570002003a00d4
:1012500060041400e0841c001c0e44005c964c00ea
:101260008fb897000100e00006003200ffb0970041
:101270000d00e000010032008a0078000fb99700ed
:101280000109780092002000110009008205d800b1
:101290004f0778004f06be004f05be004f04be004a
:1012a0006f00b10000000600e6874700889fbe007f
:1012b0008a9fbe008c9fbe008e1f7800f0b79f00f3
:1012c0000105780082bf9f00830578000304780041
:1012d0006720b900800478008006eb0000c3b300eb
:1012e0009a4f100003003a001d002000da4f100052
:1012f000fdff32000006eb00800deb00bb1578000f
:101300002e003700890f560019003d0072002000a2
:10131000811f7800110009000206d8000100780042
:10132000cf0078000000e00003003a0064044400ad
:10133000000ceb00381478001801be004418dd00e2
:10134000cc11de00830170004411dd00e09220002a
:10135000008050005194200060c078000000fb0025
:10136000cf80de00001c41000194490010003700ce
:1013700012002000030020009b0d4100db95490076
:10138000890f56000b003a00e092200000805000c8
:101390005194200060c07800e74f500005003400f1
:1013a0001000200001002000180c40005894480054
:1013b0000c06e8000a05e8001d0020009a00fb006a
:1013c00062012000e092200099010700800078006f
:1013d0000000e000cbff3a008c8f540001003d007c
:1013e00009067800e0c2b3009a4f100001003a00ed
:1013f0000a05e8000c00e0002c003a0000c3b3002e
:101400009a4f100029003a000081eb008081eb0028
:101410009b0d4100db9549001d002000da4f1000b4
:10142000f9ff320021003700890f56001d003d00f2
:1014300072002000811f7800110009000206d80008
:1014400001007800cf0078000000e00003003a00bf
:1014500064044400000ceb00381478001801be004e
:101460004418dd00cc11de00830170004411dd0062
:10147000e0922000008050005194200060c078006d
:101480000000fb00cf80de00001c410001944900f9
:101490000c06e8000081eb008081eb009b0d410011
:1014a000db9549000a05e8001d0020009a00fb00ba
:1014b00062012000e09220005d01070080007800ba
:1014c0000000e000d8ff3a0072002000110009007f
:1014d0000206d800010078000000e0000d00320094
:1014e000670010006402b9001801be000402e900a0
:1014f000030033000201410083814900fbff3700f4
:10150000028cbe0000064600cf80de009b1d10004e
:101510009b951800e60f5600100034001800be001e
:10152000e00f5000e08f58000c003a0067065600ac
:1015300070002000010020009b0d4000db9548005a
:1015400064045400e60f5600040034001800be0086
:10155000e00f5000e08f5800f4ff32001b00be0087
:101560004209dd00ce00de00810071004200dd0096
:10157000808dbe000d00e000310032009a407800fe
:1015800000c7b30080cf50000300320000c5b30095
:1015900080cf50002a003a00da407800b0c2b30091
:1015a00080cf5000040032000047780000c0e800ff
:1015b00080cf500002003a00014778000a05e80099
:1015c0006044b8008006eb0012003700f00f2e00d8
:1015d000515f2000800f5400818f5c000b003c00a5
:1015e000a2002000030020000800be00b00b07008e
:1015f0001a4178000201fb00cf91de000004410097
:10160000818449000803b1000980b1000a05e8009f
:101610001d0020001a00fb001f0107000000e00071
:10162000eaff3a00d0c2b300804f570002003a00f0
:1016300060041400e0841c009b0d4400db954c000a
:101640008fb997000300e00006003200ffb097005a
:101650000d00e000010032008a0078000fb897000a
:101660000108780072002000110009000206d8006d
:101670004f0778004f06be004f05be004f04be0066
:101680006f00b10000000600889fbe008a1f78002e
:10169000000578000204be00100190004710de0033
:1016a00080007800f10fb200e14f400006003a00e0
:1016b000f207b20002003a001a00e00019003200fe
:1016c00020002000460037000100e00006003a003c
:1016d0000a0078004f040700800078000000eb004b
:1016e0000100e0003e003c006108b9000804400031
:1016f00089844800e00f2000800f5400e08f5c00d8
:101700000a0034001a0090000200200003f82f00a5
:101710000000e000020035000200200003f827006e
:10172000028dbe00100020002d0037009a009000ae
:10173000e00f5400e08f5c0005003400f007280043
:1017400000806000c740dd0001007000220037000b
:10175000000028000082600001007800f007b2005d
:101760000070a0001005980061045400e0845c0043
:10177000f70f4400e08f4c0004003d001405980072
:10178000000deb000000eb00150037008801780029
:10179000f00f440004003c00000d78000000eb0056
:1017a00010059800f00144008301ea0008003200af
:1017b0001a0078000300de00f08011001a0190008a
:1017c0008110dd00010d70000311de00120598008c
:1017d0001a00900004007000100598000080eb00d3
:1017e0004f0578004f04be00000006000200fa001a
:1017f000889fbe008a1f7800000578000204be00a2
:101800008000780068805700360407001a00be0088
:101810000801be008d0a0700008dbe004fb9970079
:10182000cf91de000a00780097ff07004f0578008f
:101830004f04be000080fa00000006000400fa0019
:10184000889fbe008a1f78008c9fbe0090bf9f00bb
:10185000a1bf9f000204be00e00f5100e08f5900bd
:101860006c0032006011b800190b07000000e000a6
:10187000680032000c0020000df82300e00f540037
:10188000e08f5c0032003d0060041400e0841c0026
:101890000005eb00110032000808a3000700320029
:1018a0006450b800029e2000020040001001be00fb
:1018b0000c00be00650a07000006be008904d100c6
:1018c0000884d3000a05e800e00f5400e08f5c00b4
:1018d00002003200e40f5500efff36000c01be009d
:1018e0000000200001f823008e0a07000001be005e
:1018f0006e805700bdff0700000578000000e00083
:101900003d003d00e00f5400e08f5c003a003200e3
:10191000a24f8000b34f80000000200001f8230098
:10192000800a07000006be000c01be006e80570052
:10193000aeff0700000578000000e0002e003d002b
:1019400061045400e0845c00f7ff3a002a0037008d
:10195000e00f5400e08f5c00270034000005eb002e
:101960000808a300070032006450b800029e20005f
:10197000020040001001be000c00be00330a070048
:101980000006be008984d1000884d3000a05e8005f
:10199000e00f5400e08f5c0002003400e40f5500bb
:1019a000efff36000c01be006e8057008fff07006e
:1019b000000578000000e0000f003d00e00f54003b
:1019c000e08f5c000c003400ac4f8000bd4f800005
:1019d0000c01be006e80570084ff070000057800f0
:1019e0000000e00004003d0061045400e0845c005d
:1019f0004240a900f6ff3c00000120000a00e00080
:101a000003003200e10f550002003a008000200080
:101a1000dc0307001fb89700afb897004f06be0061
:101a20004f0578004f04be000080fa000000060059
:101a30000200e0000500320090cf100004003200e8
:101a40000000e8000201e900fbff3a000000eb00a3
:101a500000000600800178000200e0000300320070
:101a6000b15978000201e900fdff3a0000000600cc
:101a7000010878000000060090cf10000500320039
:101a80001004e00001003a0000000500d0cf100073
:101a9000fbff3a00000006000003b1000300350020
:101aa0009000b10001003c0010000500000005009e
:101ab000889fbe008a1f7800000478000102780029
:101ac00002457800830478000200fb00cf80de002e
:101ad0005002b1000180b10032052000820f500099
:101ae000e08f580095013e00006001008d01370035
:101af0009201370091013700900137008f013700c4
:101b00008e0137008d0137008c0137008b013700c3
:101b10008a013700890137008801370087013700c3
:101b200086013700850137008401370083013700c3
:101b30008201370081013700800137007f013700c3
:101b40007e0137007d0137007c0137007b013700c3
:101b50007a0137007901370078013700ed0037004e
:101b6000760137007501370074013700e90037004e
:101b7000e8003700e7003700700137006f013700d9
:101b80006e0137006d0137006c0137006b013700c3
:101b90006a013700690137006801370067013700c3
:101ba000660137004b0137006401370063013700dd
:101bb0006201370061013700800037005f013700a4
:101bc0005e0137005d0137005c0137005b013700c3
:101bd0005a0137005901370058013700cd0037004e
:101be00056013700150037001c003700c9003700c8
:101bf000c8003700c7003700500137001700370012
:101c00004e0137004d0137004c0137004b013700c2
:101c1000ec003700690037001f013700470137002b
:101c2000460137002b0137004401370063003700bd
:101c30004201370041013700600037006e01440067
:101c400012007800808141009480e900010a780048
:101c50000009e8009149780041013700a860900030
:101c6000c0c6b30080cf50000a003a00940078004c
:101c700064805000000a78001000be004f89de002a
:101c8000cf91de000002be000203780082037800dc
:101c90001500370010c7b30080cf500002003a0093
:101ca000140178000400370014017800a0c6b300c6
:101cb00080cf500005003a0068005100000a78000b
:101cc0003002be002003be00070037000280e9009a
:101cd000000a78001000780000027800cfa2de0031
:101ce0000503780086037800049cbe000694be00bd
:101cf000a860900080c6b30080cf50000f00320073
:101d000020c6b30080cf500006003a00184078008b
:101d10000000fb00cf80de00010178008201780026
:101d20000a00370040c7b30080cf500003003200e4
:101d30006640400080cf500006003a00180078004e
:101d4000cf80de000101780082017800009cbe0097
:101d50000294be003800be002801be00e00f500013
:101d6000e08f5800e00f5900e08f590004003d005b
:101d70006e01440092007800d0c2b3000c0037001e
:101d8000081090000018a300040032006e01440007
:101d900092007800b0c2b300050037000008a3002d
:101da000570032006e0144009200780000c2b30078
:101db00080f478000109e80051003700a860900025
:101dc000c0c6b30080cf500006003a0094007800ef
:101dd00064805000000a78001002be006033b80032
:101de0001500370010c7b30080cf500002003a0042
:101df000140178000400370014017800a0c6b30075
:101e000080cf500005003a0068005100000a7800b9
:101e10003002be002003be00070037000280e90048
:101e2000000a780010007800000278000500200009
:101e30000600200007002000049cbe000694be009f
:101e4000a860900080c6b30080cf50000f00320021
:101e500020c6b30080cf500006003a00184078003a
:101e60000080fb0001002000020020000300200091
:101e70000a00370040c7b30080cf50000300320093
:101e80006640400080cf500006003a0018007800fd
:101e9000010020000200200003002000009cbe0082
:101ea0000294be00081090000038a3001400320015
:101eb0003800be002801be00e00f5000e08f58003f
:101ec000e00f5900e08f59000d00320080c7b300c9
:101ed000804f55000300320080c5b300804f55008d
:101ee00007003a006e0044009000780002c3b3007f
:101ef00082f478008100e8008af478000108e800a4
:101f00007800900000804400600498008a407800c7
:101f10006d003700a860900014017800c0c4b300c1
:101f200080cf500005003a0068005100000a780098
:101f30005001be004000be000400370064005100a4
:101f4000000a78001000be002f0a0700009cbe00a7
:101f50000294be00380090000000e00004003d0044
:101f60006e01440092007800d0c2b3000c0037002c
:101f7000081090000018a300040032006e01440015
:101f800092007800b0c2b300050037000008a3003b
:101f9000050032006e0144009200780000c2b300d8
:101fa00080f478000109e800780090000080440087
:101fb000600498008a407800080078007c020700de
:101fc00067003700286090008000fb00c0062000fa
:101fd000808f5000230032000a003c006400500053
:101fe000808f50002600320004003c006600500044
:101ff000808f50000b00320021003700a006200027
:102000000500370040072000808f50001c00320080
:102010001b003c0063005000808f5000070032001e
:10202000170037001480e900000a780010007800db
:10203000485c900008487800490037001480e900a7
:10204000000a78001002780068089000cf80de0057
:102050000101780082017800009abe000292be0061
:102060003f0037001480e900000a78001001780072
:1020700068089000cf80de000089be00380037007d
:102080001480e900000a780010007800680c9000c5
:1020900008087800320037001480e900000a780050
:1020a00010007800cf80de00010178008201780006
:1020b000009cbe000294be007800900000804400a6
:1020c0006004980081c7b300080078008f040700ff
:1020d000230037001480e900000a7800100078001f
:1020e00060049800580990000200e00002003d00e2
:1020f000f7000700090037008000eb004cfe0700e6
:10210000800078000000e0000300320068009000ca
:10211000008050000100370058089000100c980013
:102120000f0037006e0144009200780050c2b300e7
:1021300080f178000109e80009003700ee00440052
:1021400011007800808144000a4278008008e8008d
:102150000a04e00001003a0054c2b3008449780048
:102160000000eb004f0578004f04be0000000600a1
:102170000400fa00889fbe008a9fbe008c1f780072
:10218000000478000106780070089000f8009000c4
:10219000010050008808900001005000980890004d
:1021a00001005000a808900001005000b8089000fd
:1021b00001005000c8089000810550000002220074
:1021c00090bf9f0000032300a0bf9f000810900055
:1021d0000028a30018003a000b00e00016003400ad
:1021e0000b0578008a047800e20f550001003600e4
:1021f000290020000900e0000c0034005800900085
:10220000c801900009017800ee805700030001002a
:10221000500498008080eb000000e0009c00320039
:102220006808900009004000600c980009055500fe
:102230004240a900ebff3c00780190000200e00062
:102240000c00340058009000c80190008c00780009
:1022500003000100500498008080eb000000e000c3
:102260008b00320068089000f800900001004000e8
:10227000600c9800080890000000e0001600340090
:10228000000578008a047800e20f5500010036004e
:10229000290020000900e0000c00340058009000e4
:1022a000c801900009017800ec805700030001008c
:1022b000500498008080eb000000e00074003200c1
:1022c0006808900009004000600c9800090555005e
:1022d0004240a900ebff3c00180990000200e0001a
:1022e0000c003400e800900058009000c8019000f5
:1022f00003000100500498008080eb000000e00023
:1023000063003200680890009808900001004000c7
:10231000600c9800280890000000e00016003400cf
:10232000000578008a047800e20f550001003600ad
:10233000290020000900e0000c0034005800900043
:10234000c801900009017800ec80570003000100eb
:10235000500498008080eb000000e0004c00320048
:102360006808900009004000600c980009055500bd
:102370004240a900ebff3c00380990000200e00059
:102380000e003400e80090001808900080804000a3
:1023900058009000c801900003000100500498000c
:1023a0008080eb000000e0003900320068089000f7
:1023b000b808900001004000600c980048089000a8
:1023c0000000e00016003400000578008a04780060
:1023d000e20f550001003600290020000900e0004e
:1023e0000c00340058009000c801900009017800ea
:1023f000ec80570003000100500498008080eb003f
:102400000000e0002200320068089000090040004f
:10241000600c9800090555004240a900ebff3c0004
:10242000081090000028a300180032000b00e00004
:10243000160034000b0578008a047800e20f55007e
:1024400001003600290020000900e0000c003400e3
:1024500058009000c801900009017800ee805700f4
:1024600003000100500498008080eb000000e000b1
:10247000070032006808900009004000600c9800d6
:10248000090555004240a900ebff3c008000eb002d
:10249000010078004f0678004f05be004f04be00d3
:1024a0000080fa00000006008001eb001041780077
:1024b000814f510001003a00800178000000e800df
:1024c0000204e000f9ff3a00030078000000060073
:1024d000800078001004e000020032005104e000a7
:1024e000feff3a000080500000000600889fbe00fa
:1024f00080047800c1508000010078000100e000f5
:102500000a003a00a1a120001a0ae2001c003200d1
:1025100011007800908f5400140036008080e8008d
:102520001100e000faff3a00150037001100e0004a
:102530000600320011017800928f54000b00360023
:102540008280e8001100e000faff3a0010017800f4
:10255000a1a12000d0508000820f5000080032005e
:1025600011007800908f540002003e0001007800b6
:10257000150037008080e800910f1100f8ff3a0045
:10258000e8508000890f54000100310009047800f0
:10259000080078000f040700000178000000e00048
:1025a00005003a000000eb00890f540006003200dd
:1025b0000804d100f3ff3700081978000200780002
:1025c0000b040700cbff37004f04be0000000600dd
:1025d000881f7800630440000800a1000001eb00a0
:1025e000800f540022003600e30f540001003e002b
:1025f0004800200008007800bcff07008000780039
:102600000001eb000000e00019003200100178002a
:102610009201780064805100880f5000030031005f
:102620001200900080087800070037000800410081
:1026300080087800120290001400980011007800c1
:102640000888510008097800910078000100e00036
:1026500004003200110090008180e8000000e000da
:1026600001003a008000eb00c15088000281e800c0
:10267000020078004f04780000000600881f7800f0
:10268000880020000800d00081872000608078004a
:102690000000e000010032000a0007000804e90021
:1026a000f8ff3700e03321000a043700244ae20033
:1026b00003003a00fbff070020c0b30024eab70084
:1026c00000000600889fbe000004780052f9070051
:1026d000800478001868a3000200320028009000ef
:1026e000c30307000000eb0020049800384090006e
:1026f0000004e000050035000000fb007106070043
:102700000000e000010032008084eb00181090000f
:102710000000e00008003200730607000000e0003f
:10272000010032008084eb0018109000b003070015
:102730000000eb00101498001878a3000e0032007f
:102740008000eb000100d0008287200002004000e2
:10275000900f1400060032008100e800e78f50005f
:10276000f8ff360008007800a103070010003700ca
:102770000008eb00fbff3700000ceb0000c0eb0093
:1027800030449800600220000800400020049800b7
:102790004004980050049800400c98006004980091
:1027a000500c98007004980076004400000c9800cb
:1027b000090078004f04be00000006006900e10037
:1027c000040035006d00e100030034000002b10098
:1027d0000100320000000500100005000003b100f8
:1027e0000b0035009000b100080034008000b100fb
:1027f000070035009001b100040034007000b10002
:10280000030035009001b10001003c0010000500fc
:102810000000050080017800900090000000280072
:10282000008360001400200001007800f007b2006f
:102830009001980002003a001300e00024003200ea
:102840000000e00004003a001300780090019800b6
:102850008009eb0014ff2f0093009000f007200088
:10286000808f50000a003e008100d00013017800e4
:102870004f10de0080807000910198008209d00026
:102880000402e900f0072000808f5000f6ff3600b8
:1028900013019000f50f2000850f5100090036004c
:1028a0001300d100cf10dd00810970000200d100bb
:1028b000900198000402e80000017800850f5000a4
:1028c000f7ff3e0013009000f007b200900198005f
:1028d000130090000600700090019800040078003a
:1028e00000000600889fbe00800478000104780084
:1028f000110090004700de0000017800f20fb200e6
:10290000e14f40000a003a00800ceb0011009000fb
:10291000f007b20002003a001100e00002003200ad
:1029200020002000150037001000200013003700a1
:102930000200e00005003c0001007800b5ff070040
:10294000000178000000e0000a003c001800900040
:10295000f10728000100600001f023000100700071
:102960001004980020f82f00800c41000080eb003c
:1029700002003700800ceb000000eb004f04be00ab
:10298000000006008000780065006000030032004f
:1029900010022000f05088000000060078806000df
:1029a0000200320020022000f050880000000600e3
:1029b000ef04b000889fbe008a9fbe008c9fbe00bf
:1029c0008e1f7800c0af9f00a1df9f0060fa2f002c
:1029d0000f004000e0af9f00cfaa97005503be0054
:1029e0004502be0084af9f0095af9f00a6af9f0039
:1029f000b7af9f0010c6b30080cf50001600320062
:102a000010c4b30080cf5000130032004fab9700ca
:102a1000560890000000e00003003d006000200028
:102a2000500b98000c0037000000e0000a003a004c
:102a300070c6b300afdb970080cf530003003200b5
:102a400070c4b30080cf530003003a001000200090
:102a5000cfa89700d0089800cfa89700e2fc2f00dd
:102a6000028047002e03070080017800e20f50002b
:102a700014003a00cfa99700e30090003000200036
:102a80009009980010c6b3002fda9700804f5200cb
:102a90000a00320064404000804f520007003200bc
:102aa0000040e800804f520004003200c2a2200023
:102ab0000040e800804f520017003a0002a32000b7
:102ac000150037000000e00018003400cfaa97007e
:102ad000e500900030002000900a980010c6b30076
:102ae0002fdb9700804f53000a0032006440400003
:102af000804f5300070032000040e800804f530031
:102b00000400320042a320000040e800804f530040
:102b100001003a0082a32000b25878000200780039
:102b2000b058780090487800f201370014c6b3001e
:102b3000afdb970084cf53000300320010c4b30012
:102b400080cf530010003a004fa89700ec004000df
:102b50001101780000c3b300005978008208e80032
:102b600080c7b300afd8970084cf50000100320077
:102b700080c5b300004978004fa99700720090000b
:102b80000080e800700198000300e00003003a00b4
:102b90008006eb00fda79f00d001370011c6b300ef
:102ba000afd9970081cf51000300320010c4b300a9
:102bb00080cf5100ad003a00cea320002fda97005d
:102bc000814f520001003200dea42000cfaa9700fe
:102bd000550890008006e8000000e00001003d007c
:102be0001d0220000d06e8004fab97003604be0022
:102bf0002605be006022b8006033b8000fa8970019
:102c00009fa897002fa99700bfa997001d0707004d
:102c10000000e00001003d000bf0a20088af9f0023
:102c200099af9f00aaaf9f00bbaf9f007fa0970006
:102c300064005000f0a79f00efab9700805beb00b3
:102c4000e7af9f003f003700c201200003002000d3
:102c500001fd2f0001804700df0207000faa970047
:102c60009faa97002fab9700bfab9700f4af9f00d0
:102c700085b79f0096b79f00a7b79f000400be00ce
:102c80000601be00040707000004be000005be00e8
:102c9000670656004240a9000c0034002a070700ce
:102ca0000002be000203be007fa897008fb097000d
:102cb0001fb19700afb197002607070080af9f00b4
:102cc00091af9f00a2af9f00b3af9f00efaa970004
:102cd000e7824200e5af9f0070002000e00f540043
:102ce000e08f5c000d003400600020006fab9700a7
:102cf0006f636500e6af9f00cc5bdd004455de00ee
:102d00000a857300c4ddde00e00f5500e08f5d0032
:102d1000020034000000e900f4ff3b000000e9007d
:102d200005003300efa897008060eb00e1af9f0043
:102d30000000e900fbff3b006fa99700670141001d
:102d4000e2af9f000c00e000090034006022b800f0
:102d50006033b8000fa897009fa897002fa997008d
:102d6000bfa99700fd0607000000e000b6ff3c0089
:102d7000efa9970064fa2f000f024200048051006f
:102d80000006e90075fa2f0085824700e5af9f0035
:102d90008d0f560001003d008c0678000d00e0000c
:102da0002b0035008c8f560005003d006fab97005f
:102db00066c07e00f2c0b300e74f500001003c0047
:102dc0000041eb008d00e900efab970067c0780091
:102dd000824f500006003a008d06e9008100e900ac
:102de000efa9970063c07800824f5000faff3200cd
:102df000ef4f510004003a006faa970064c07800ba
:102e00000040e80000f278000100e00007003d000b
:102e1000efaa97008502e900e5af9f008d06e80064
:102e20007fa0970064004000f0a79f008d00e9009c
:102e3000070033006fab970066c078000000fb000e
:102e40006e40780000f378008100e900f9ff3b0054
:102e5000cfab9700570890000000e0001f013d0035
:102e60000d00e900d00b98001c0137000fac970053
:102e70009fac97002fad9700bfad97006022b800c0
:102e80006033b8000800be000a01be007d060700de
:102e90000000e00005003d000bf0a20088af9f009d
:102ea00099af9f00aaaf9f00bbaf9f007fa0970084
:102eb000725927000280b900026a2800130020001e
:102ec000ab060700e4005000f1a79f001d003b0087
:102ed00063801000c1ff2f00010460000800ea00b9
:102ee000f0a79f008004eb000800e00047003400da
:102ef0000808a3000e0032006848b800628e200067
:102f0000020040003002be002003be000fa8970060
:102f10009fa897002fa99700bfa99700a3060700b5
:102f200080af9f0091af9f00a2af9f00b3af9f0003
:102f30000884d1008904e8000800e000ecff3c00b0
:102f4000320037000100e000300034006022b80099
:102f50000600200007ff2300b4b79f00c5b79f00fd
:102f6000d6b79f00e7b79f00c0ff2f00008060002a
:102f7000f0a79f00000478008004eb0016003400e6
:102f80000808a300100032006848b800658e2000d1
:102f9000050040003002be002003be003fb0970095
:102fa000cfb097005fb19700efb197007f060700a1
:102fb0000002be000203be00b4b79f00c5b79f0069
:102fc000d6b79f00e7b79f000884d1008904e800c6
:102fd0000800e000eaff3c003fb29700cfb2970044
:102fe0005fb39700efb397000fa897009fa89700d3
:102ff0002fa99700bfa99700e106070080af9f00a7
:1030000091af9f00a2af9f00b3af9f004fab97005f
:10301000d608900060c6b300afdb970080cf5300a6
:10302000040032006687400060c4b30080cf5300c4
:1030300003003a007fa09700008040006a0740002c
:10304000f30f5700010034003e01200000c3b3001d
:10305000efa8970080587800e1af9f003a00370052
:103060000800be000a01be000b0607000006be00f5
:10307000f0b79f0081bf9f00680757004240a9003a
:103080000e003400300607000002be000203be003e
:103090000800be000a01be002e0607006022b8002c
:1030a00046782d00771924004006070080af9f0066
:1030b00091af9f00a2af9f00b3af9f00efa9970011
:1030c000e8814100e3af9f0088002000e00f560038
:1030d000e08f5e001100340078002000a200200084
:1030e000030020007fb097008fb8970030020700e0
:1030f0006faa970005c3b30005624100e4af9f00cb
:10310000f0b79f0081bf9f00e00f5000e08f580094
:10311000020034000804e900f0ff3b000804e90065
:103120000600330000c3b300efab97008063780064
:10313000e7af9f000804e900faff3b006fa8970083
:1031400068004000e0af9f000e00e0000b0034007c
:103150000fac97009fac97002fad9700bfad9700c5
:103160006022b8006033b8000800be000a01be004b
:10317000fa0507000000e000b9ff3c00efa8970047
:1031800062fa2f000f014100028050000007e900a1
:1031900073fa2f0083814700e3af9f007fa0970061
:1031a00067004000f0a79f0001c3b30093cf100059
:1031b0000a003a000e07e9007fa097000000e9002e
:1031c000f0a79f006faa97000402e800e4af9f00f9
:1031d00014427800814f5200f6ff3200cfaa9700c8
:1031e000d508900060c6b3002fdb9700804f5300d6
:1031f0000300320060c4b300804f530004003a0063
:103200007fa09700008040008006e8000a00370099
:103210008001eb0050c6b300afdb970080cf5300b6
:103220000300320050c4b30080cf530001003a00c5
:1032300013002000838640008d0f570001003d00e1
:103240008e0678000d00e000240035008e8f5600b9
:1032500006003d006fa89700e0c07e0092c3b30057
:1032600040c3b30080cf500001003c0002c3b30054
:103270008d00e900efa9970063c07800824f5000ed
:1032800006003a008d06e9008100e9006faa970068
:1032900064c07800824f5000faff320090c3b30040
:1032a000804f510004003a00efaa970065c07800f3
:1032b0000040e80080f278000100e00007003d00d7
:1032c0006fab97000603e900e6af9f008d06e800ac
:1032d0007fa097000000e800f0a79f007fa2970062
:1032e0008d0178006fa99700afd897004fa897007d
:1032f000c60107004f0778004f06be004f05be000d
:103300004f04be00ef04b100000006006f02b000e1
:10331000889fbe008a9fbe008c9fbe008e1f7800d3
:1033200080067800f0982000b0b79f0080c5b300f9
:1033300080cf500002003200e2972000b2b79f0019
:1033400083002000c3b79f00f0c6b30080cf5000b9
:103350000a0032006940400080cf50000500320072
:10336000a4002000c4b79f0080c5b30080cf5000e8
:1033700002003a0000012000c0b79f008e0120002b
:103380003d04be002d05be0040c6b30080cf5000f6
:10339000030032006540400080cf50000a003a0030
:1033a000e00f5400e08f5c00e00f5d00e08f5d00f7
:1033b00005003d000800be000a01be004a060700e5
:1033c0000205be000004be00e00f5400e08f5c0068
:1033d000e00f5d00e08f5d0003003a005d089000a3
:1033e0000000e0000c0032007e012000cfb097000a
:1033f00001027800cfa2de00050378008603780082
:103400000800be000a01be00cd0607003fb29700cb
:1034100064407800d0e79f004fb09700cf80de0077
:103420000101780082017800d0b79f00e1b79f00ca
:10343000f2b79f0083bf9f000203be000002be00e0
:103440000800be000a01be00b6060700809ebe004e
:103450008296be00e00f5000e08f5800e00f590048
:10346000e08f5900220034000e00e00020003400fc
:103470003d00be002d01be005fb29700efb2970085
:103480007fb397008fbb9700b10607000205be000f
:103490000004be000e07e900e1fc2f008f80400011
:1034a000010647005fb29700efb297007fb3970025
:1034b0008fbb97000800be000a01be005807070036
:1034c0001d0010003fb19700624e7800889ebe003c
:1034d0008a96be00e00f5400e08f5c00e00f5d00b4
:1034e000e08f5d00020034000e00e000e0ff3c00d1
:1034f000cfb19700e88f510010003a000d109000f6
:103500000038a3000d003200f70f570006003e0000
:10351000e4fc2f000e024200e4c07f0000c3b300b1
:1035200080cf5000050032000e07e90000c3b30051
:10353000e1fc2f008e80400080f07f0078011700b2
:10354000920e98006d009000e3fc2f008f814100e7
:103550008e8041003ff907001d0e90005d0890002d
:10356000800f560006003d000c005000800e9800b1
:103570000d1090000040a100801698000f00370049
:103580000000e0000d003d000d1090007400600090
:10359000f00f500009003a007d089000fd009000f7
:1035a000010050008d089000010050000c075000f1
:1035b0004240a900010034008e0e98004f077800a9
:1035c0004f06be004f05be004f04be006f02b100a3
:1035d000000006000000e00003003400cb020700fa
:1035e000e10f400001003a000000eb00000006007f
:1035f0000000e000360032000081e900120278008d
:10360000e30f5200320036000408a30030003a00f5
:10361000d15080000100e00002003200810f510013
:103620000300310001087800d25088001d003700e7
:1036300081017800110090000000e00008003200d5
:10364000820f5000060031008001780010009000c9
:103650000000e00002003200820f5000faff390043
:103660009300780001804100800f5100180039005c
:10367000820f500003003a00848940000301780063
:1036800008003700930090000100e00003003200c2
:1036900004004100808f50000d0039001101980096
:1036a00092019800920090000100e00008003200b2
:1036b0009201780003004100810f500004003a009d
:1036c000182aef00108941001000900010019800a6
:1036d0000000060000017800000020000000e0006b
:1036e00008003200000080000000e0000500320009
:1036f0000000e900000088000000d0000100800008
:1037000002b0780000000600005180000000e000d8
:103710000100320000000100e0a1200000000600ce
:10372000889fbe008004780001047800310090007a
:103730000000d0004501de00f07f2000800f510026
:1037400010003a00800ceb00310090006f00600028
:1037500008003a00210090000000e00005003a0057
:10376000110090000000e00002003a001100e000ab
:103770000200320020002000150037001000200059
:10378000130037000200e00005003c000100780053
:10379000cf010700000178000000e0000a003c00b3
:1037a00038009000f10028000100600001fe2300b5
:1037b000010070003004980020c02f00800c4100f0
:1037c0000080eb0002003700800ceb000000eb00f3
:1037d0004f04be0000000600881f78008a9fbe00cc
:1037e000000478000205be00300190000200d00005
:1037f000c500de00f07f2000808f50000c003a00f2
:103800006f00610008003a00280090000000e0000e
:1038100005003a00180090000000e00002003a00a5
:103820001800e0001c003200200020005d0037007e
:103830000100e00006003a0008007800a40107003b
:10384000800078000000eb000100e00055003c0023
:103850006108b9000a0540008b854800e07f200020
:10386000800f5500e08f5d000d003400380090009f
:103870006022b8000600200007ff2f000000e000d3
:10388000030035006022b8000600200007ff270073
:10389000049cbe000694be001000200041003700ca
:1038a000b8009000e00f5500e08f5d000500340087
:1038b000f000280000806000c450dd0001007000ae
:1038c0003600370000002800808260006f806000b2
:1038d0000040a0003004980061055500e0855d00bf
:1038e000c0fc2f00f1ff2f00800f5500818f5d007d
:1038f00006003d00350498000000eb00200498000d
:1039000010049800000ceb00260037000a02780033
:10391000f00f45000b003c0018009000000c7800f0
:1039200028009000100498003800900020049800af
:103930000000eb003004980070024200f00f4200db
:10394000f5ff34000402ea0012003200180178008a
:103950000411de00f0011200180090008300dd0069
:10396000010c71000400de00280190008310dd00ce
:1039700001007000100498000411de00380090006f
:103980008301dd0003017100220498000400de00c1
:103990003004980038009000050070003004980052
:1039a0000080eb004f05be004f04780000000600c9
:1039b0000400fa00889fbe008a9fbe008c9fbe0054
:1039c00080bf9f0091bf9f000206be00e803070072
:1039d0000001be000004be000c00be00b4020700df
:1039e0000fb997009fb997000005510081855900d4
:1039f0000800be000a01be004f06be004f05be0013
:103a00004f04be000080fa00000006000a00fa0021
:103a1000889fbe008a9fbe008c9fbe000004780075
:103a20000145780082057800830478000406780058
:103a30000300e00002003c00190020006ba62000fb
:103a400060c6b300804f55000e00320060c4b30062
:103a5000804f55000b00320070c6b300804f5500f8
:103a60000300320070c4b300804f550083003a0059
:103a7000e40f46008100350058089000800f560082
:103a80007e003d000c06e80060c6b300804f550084
:103a90001000320060c4b300804f55000d003200aa
:103aa000081090000038a30004003a005808900065
:103ab000808f540001003d00590c98005808900078
:103ac0000c005000500c980002003b000000eb007e
:103ad000500c98000c00e00027003c00f20144006c
:103ae000130178006800900001c3b30001707900f1
:103af0000201e80082097800580890000000e00008
:103b000003003c00081090000038a30004003200bd
:103b1000e8009000e0c2b300807079008209e800fc
:103b20000c00ea00d8089000808f500001003d0092
:103b30000106ea000c00ea00200c98000c8040000e
:103b4000500c9800890f500001003d00800478005f
:103b5000680090009808900001004000390c98001f
:103b6000090178008b007800baf707005808900028
:103b7000090050001a003700e80090001808900073
:103b80008c8f540018003d0000804000090178002f
:103b90008b007800aff7070018089000090140007b
:103ba000120c980009005600200c9800580890004c
:103bb0000000e00003003c00081090000038a30063
:103bc00006003200e8009000e0c2b3008070790087
:103bd000380890000000e800300c98005808900069
:103be000400c9800a3003700008040000c017800d2
:103bf0008b00780097f70700180890000c00400031
:103c0000100c98008c845400580890000000e000cc
:103c100003003c00081090000038a30006003200aa
:103c2000f20144009300780068019000e0c2b30004
:103c300000f178008109e80058089000890f5000d1
:103c400001003d0080047800680090009808900012
:103c5000010040008c804500090178007df70700d5
:103c60001808900009004000100c980058089000b7
:103c700009005000200c98007e00370070c6b30089
:103c8000804f55000300320070c4b300804f5500d0
:103c900014003a0058089000808f540004003d0042
:103ca000081090000038a30001003a00590c980059
:103cb000580890000000e900500c980002003b00fa
:103cc0000000eb00500c980051c6b30070c6b30062
:103cd000804f55000100320051c4b3000145780007
:103ce0000900370010c6b300804f550002003a00ab
:103cf0000ac7b3000400370010c4b300804f55005a
:103d000001003a000ac5b300f20144001301780033
:103d1000680090003b7079000201e8008209780099
:103d2000580890000000e00003003c0008109000dc
:103d30000038a30004003200e8009000e0c2b300a5
:103d4000807079008209e800580890000000e000c7
:103d5000100034008904e900890f500001003d0083
:103d600080047800680090009808900001004000ee
:103d7000090178008b00780036f7070018089000da
:103d800009004000100c98005808900009005000ed
:103d9000200c9800e80090001808900080854000f2
:103da0008a5d78008b06e8000c00e0000400350016
:103db000b0c2b300804d78008d0578000400370054
:103dc000d0c2b300804d78008d0578000c06ea0063
:103dd0008004eb000c00e00009003400a10020008a
:103de0000c0078008d0007007681540001f17f00ff
:103df000000678008904e8000000e000f7ff3c00be
:103e0000e18f540009003c0050c6b300804f5500bc
:103e10000300320050c4b300804f550003003a0045
:103e200000c3b300805e78008d0578000900e000d3
:103e300002003a0000c3b300805d78000900e00092
:103e4000070034008904e900f680540061c07f0057
:103e500002c3b300825d40000900e000f9ff3c00ae
:103e60006800900098089000010040000080550014
:103e7000300c98000810900074006000f00f5000a3
:103e80000e003a0078009000980890000100400071
:103e9000a808900001004000b80890000100400010
:103ea000c80890008100400078089000808f500082
:103eb00002003d0001005000000c98004f06be00bb
:103ec0004f05be004f04be000080fa00000006004f
:103ed000000278003000900001002800010360001b
:103ee000150020006f0060003002980008003a00c2
:103ef000240090000000e00005003a00140090004b
:103f00000000e00002003a001400e0003e00320031
:103f1000340090000000e0000b003a002400900004
:103f200030029800140090002002980014007800dd
:103f300010029800000aeb00f0825200340090005a
:103f40000000e000f5ff320034009000ef0f500059
:103f500014003e008001d000a40090004f08de0055
:103f600080817100330298008100d000140190001c
:103f70004f10de0080807000210298000201d00006
:103f8000940078004f08de000001710012029800d2
:103f9000010ad0008502e90003007800ef8f51008c
:103fa000ecff3600b4019000ff8f51001300360083
:103fb0001401d10014009000cf00dd00010a71004f
:103fc0000000d100a40090004f09dd000200700045
:103fd000100298008100d1004f18dd008080700031
:103fe000210298000300d100300298008502e80009
:103ff00080017800ff0f5000edff3e00340090007c
:104000006f006000300298003400900006007000dd
:1040100030029800050078000000060001017800d9
:1040200000027800110009000200d8000002fd0023
:104030000491b900820250000400be000000060096
:104040000a00fa0080017800e20f500012003e00e2
:104050000c02e200030035001422ef0000002800eb
:104060000c22b7000f42ab0001003a000f42a8003b
:10407000820178000200e0000f0032000f22ab0046
:10408000feff3a003100fb00801088008301e90048
:10409000faff3a000800370030002000b0bf9f0050
:1040a000c3bf9f00d1bf9f00e2bf9f006a8057003f
:1040b00000c0da006fb99700020078000080fa00b3
:1040c000000006000a00fa0011002000b1bf9f00a6
:1040d000c0bf9f006a80570000c0da004fb8970049
:1040e0000080fa00000006000a00fa0051002000db
:1040f000b1bf9f00c0bf9f006a80570000c0da00b8
:104100005fb897000080fa0000000600889fbe009c
:10411000800478002a0ae20005003a000000eb0063
:10412000100007008080eb000000e0000a0035006e
:1041300058518000880078000900e0000600320035
:1041400009004400070007008080eb000000e00049
:104150000100350088007800010078004f04be009f
:1041600000000600800078000001eb000000e00085
:1041700003003a0080a62000505188000600370056
:1041800070b12000808f500002003e005151880025
:10419000010037000081eb000200780000000600fb
:1041a000889fbe008a9fbe00010578000100e000e4
:1041b0000400350008003c000000e0002000320050
:1041c0000500370060001000e080180002003b008e
:1041d00001f02c001a0037000004be006011b80086
:1041e0006b0920000982cf00020039000882cf004d
:1041f0000441b000694252000e00320008003b004a
:1042000082817100610164008904d1000884d300b7
:104210008b05e8000442e800f9ff3a00050037008a
:104220000804440089844c008b05e9000442e9003d
:10423000fbff3a00060107000af0a70001f0a0000a
:104240004f05be004f04be0000000600889fbe0060
:104250008a9fbe008c1f7800230107002a013300cb
:1042600003866c006450e100240032006420e10009
:10427000270032006150e100220032006120e1009d
:10428000210032008b854200eb07b1000134b800f9
:10429000003ab8000804420089844a00013ab80094
:1042a0000030b8008880400009014a000400330053
:1042b0000000400081804800020149008b05e900b0
:1042c000c909dd00830170000100320013002000e5
:1042d000c814de004814dd004709de001200b200f9
:1042e000c808de0008847000d900070001f0a100b2
:1042f0000cf0a70001f0a0000c0137006120e100e4
:104300000e0132000801be000200be00f7ff3700b8
:104310006150e100fcff3a0008013700f4ff2f0074
:1043200009013700889fbe008a9fbe008c1f78005d
:10433000ed000700f400330003866c006450e100d8
:104340002e0032006420e100330032006150e100b1
:104350002f0032006120e1003100320085855500d8
:10436000eb07b0000900200008042000050037001a
:104370000804440089844c000a003100060343000d
:1043800087834b000001530081815b00f8ff3300fd
:104390000203be000800a0000804440089844c0009
:1043a000f6ff3900c639dd008301730001003200d9
:1043b000130020008904d1000884d3000998a300c9
:1043c000050032000800a7000300a0008904d10006
:1043d0000884d3008b05e8008904d1000884d30049
:1043e0000001eb000281d2009900070001f0a1005a
:1043f0000cf0a70001f0a000cc0037006420e10021
:10440000ce0032000801be000200be00f7ff3700f8
:104410006120e100c90032006000b800f3ff3700fe
:104420000000200001f82700f0ff37000001be0067
:10443000e00007000470a70003f0a1006509b100c7
:10444000160032000d0035006828e1000600350036
:10445000f0ff2f00f1ff27000300e00013003b00f6
:104460000100280000000500000040008180480095
:104470008502e900fcff3a0008003700f88f42008f
:1044800002003c008000eb00000005008100d1002c
:104490000080d3008502e800fcff3a000300e00042
:1044a00002003b0060001000e080180000000600e1
:1044b000020ab900001bb9000200b80081004200e6
:1044c0008100430000000600040020009e00370029
:1044d000140020009c00370003f0a200889fbe005b
:1044e0008a9fbe008c1f78007f0007008600330083
:1044f0006450e1004f0032006420e10052003200bd
:1045000003826c0007003b000905d0000306d000c1
:10451000820f54000c065d000200390002003200d8
:1045200089017800030678008582550004003d006b
:104530000003fd008103fd008502ea008b85420037
:10454000840f720002003b0060001000e080180041
:104550006011b8000005eb007a28e1000a0039007c
:1045600006007800c75ddd00f707b20087807500a0
:104570002d003700828171000a017800610560001a
:104580008180d1000080d3008502e900f9ff3b0063
:10459000060440008784480002003b0060041400c9
:1045a000e0841c000988a300070032008a817100a2
:1045b00082817100610164008904d1000884d30004
:1045c0008b05e800170037000978a30013003a00b4
:1045d0000b00e000130034008b05e90008044400e0
:1045e00089844c000a4474000978a3000d003a0045
:1045f0000b00e000070034008b05e90008044400cc
:1046000089844c0001003a000b0020000978a300c7
:10461000f7ff32000001eb000200370082817100d9
:104620000a0178000a0007000cf0a70001f0a000c2
:104630003e0037006420e10002003a00838f6c00e6
:104640003e0033000801be000200be003700370004
:1046500081002000618055000b003d000b00200010
:1046600061fe2f000100e1001d0034008281710015
:10467000610164008904d1000884d3000000e800cf
:10468000faff3a007100200061006400030070002e
:10469000020060000900320061044400e0844c0024
:1046a0000988a500050032008b05e8006808e100d4
:1046b00002003a008904d1000884d300f20f2000e0
:1046c0000258e10005003d00c75ddd00f907b200ba
:1046d0008980750008007800000006000bf82700ac
:1046e0008b007800000005000004be0031000700c8
:1046f0000003be000405be000200be002d0007003e
:10470000844f7500000006000200be006450e10006
:10471000050036006420e100020036000968a300ad
:1047200001003a000800be000160a0004f067800ba
:104730004f05be004f04be0000000600f0ff2f0032
:10474000f1ff2700f9ff3700889fbe008a9fbe0057
:10475000841f7800e4ff07004f0078001100330049
:10476000f0ff2f00838f6c0006003b0004056500fe
:104770000a00a7000800370009f0a600100020007a
:1047800008003700820f5400838f5c00030039005b
:104790001000200001003e000000200009f0a700ea
:1047a0000000ea004f05be004f04be000000e0001c
:1047b00000000600c70ade00f107b200f50fb200e4
:1047c00008003200e1cf4200020032000170a00078
:1047d00024000500810f700001003200040805006c
:1047e00044000500810f700002003a00140005002b
:1047f0008502e9000000400081c04800fcff3b004a
:104800000170a0002400050081037800e9ff070083
:104810000001be006000b8000478a30013003a0055
:104820006220e10015003e000d0039008301d10037
:104830000281d3008180d3008301d1000281d300a3
:104840008180d3008301d1000281d3008180d30015
:104850000538b000c42add00f300b2008381720085
:1048600007f0a70003f0a00000000600f3ff2700f8
:10487000f2ff2f006110b900fbff370003ff270094
:10488000f7ff37008f1fd1008a0207008f87e900ea
:104890000000e000000006001400fa00889fbe003f
:1048a0008a9fbe008c9fbe000004be000205be00b1
:1048b000680047000a90be000890be00a6020700ec
:1048c0000070a7000bf0a100304320009e02900072
:1048d00080825200b0fe2f000028e10011003d0050
:1048e000b0fc2f000028e100150034001e099000e4
:1048f0008e0890007e0090000501b0000201d100fa
:104900008180d3000080d3008502e800fbff3a00dd
:104910000b00e000cb023b0060001000e0801800bc
:10492000c8023700f0ff2f00f1ff27000b00e00066
:10493000c4023b000100280000002000c102370033
:104940006000b800bf0237004f89de0082017800a6
:10495000c102370007f0a200f6023700809feb008b
:10496000540207008f87e9000000e0000000060005
:10497000839f68000100e00002003d00600010001d
:10498000e08018000300e00002003d00600111001b
:10499000e0811900640307004f00e00002003b00c3
:1049a00060001000e0801800000006002800fa00f7
:1049b000889fbe008a9fbe008c9fbe0003866b004e
:1049c0008c0207000028a30064003a000128a3001d
:1049d00067003a000008a30062003a000108a30043
:1049e00065003a001e009000be089000810640005d
:1049f000ed3fb100f4805700ee019000111ab800ad
:104a00008e099000311bb8009e099000311cb8003f
:104a1000511db800f485570046000700fe019000c4
:104a20003a0007008b85e8003e0007008e099000e1
:104a300040000700ee019000340007008b85e8007d
:104a4000380007008e099000400007009e09900082
:104a50001b18b800890440000a854800fe01900038
:104a6000340007008b85e80038000700ee01900055
:104a7000300007008e0990001b18b8008904400020
:104a80000a8548000a98a30008003a000402420080
:104a900085824a0006034b0087834b0008044c00c4
:104aa00089844c000a054d008d06e900848272005d
:104ab000850273004c3add0085027200010032006d
:104ac00015002000443ade001400b2004538de0034
:104ad000cb45dd000b007000c540de00cb4ddd0096
:104ae0008b8070004549de00cb55dd000b01710065
:104af000c551de000d0378001b03070003f0a10081
:104b00000cf0a70003f0a0004e0237001b18b800fd
:104b10008502400006834800e0834b0060044c009f
:104b2000070037001b18b8000603400087834800c1
:104b3000faff37001b18b8008703400008844800bc
:104b4000e0844c0060054d00000006001b18b80012
:104b50000804400089844800faff37000108a300d8
:104b600035023a005800be005801be00e3ff37008e
:104b70000008a30030023a0009047800f9ff37006a
:104b80002800fa00889fbe008a9fbe008c9fbe004e
:104b900003866b00170207006400e1004400320046
:104ba0006408e1004a0032006100e1004600320082
:104bb0006108e10049003200ec0647006000b800df
:104bc0003d02be003d03be00f48657006011b800f0
:104bd0003d04be003d05be007d0320000b003700f4
:104be0000000a0008d06e90013003200040242001c
:104bf00085824a0006034b0087834b00000040007b
:104c00008180480002014900838149000802520066
:104c100089825a000a035b008b835b00f0ff3b0034
:104c20000802420089824a000a034b008b834b0032
:104c30008d06e900edff3a008482720086827200e0
:104c4000f707b200878272000100320015002000d1
:104c50001e0490003e0b900006035400e63fb00097
:104c60000368a300070032000000a7000500a000b1
:104c70008301d1000281d3008180d3000080d30062
:104c80000603e8008301d1000281d3008180d300b4
:104c90000080d3000002eb000482d200b2020700c1
:104ca00003f0a1000cf0a70003f0a000e50137001d
:104cb000640247006408e100df0132003400be00f6
:104cc0003401be00f6ff37006108e100da0132006e
:104cd0006011b8006000b800f1ff370003ff270043
:104ce00002002000fbff370060001000e080180089
:104cf00060011900e081190000000600881f78009b
:104d0000000478005001be004000be0000004200d8
:104d100081804a0002014b0083814b00009cbe0051
:104d20000294be00dc000700030031004800900040
:104d30000000e800400498004f04780000000600de
:104d4000889fbe00000478008004eb005001be0084
:104d50004000be00d0000700010031001900200013
:104d600004005000858058000601590087815900d1
:104d7000009cbe000294be00480090000900500054
:104d8000400498004f04be00000006001200fa0024
:104d9000889fbe008a9fbe008c1f78000205be005f
:104da0000004be00f4b79f0085bf9f0096bf9f0020
:104db000a7bf9f000000eb00e0b79f00d0b79f00a7
:104dc000c0b79f00b0b79f00a0b79f000006eb00e0
:104dd0005fb197006fb097008000d0000000e00046
:104de00015003d00e1b79f00010078000200e000df
:104df00001003d000000a000ac00070001003d00e4
:104e00000000a000af00070001003d000000a0006e
:104e1000b200070001003d000000a0008100070073
:104e200001003d000000a000b20007007c80570098
:104e3000b2ff070014003700e1b79f0001007800bf
:104e40000200e00001003d000000a0009700070004
:104e500001003d000000a0009a00070001003d0095
:104e60000000a0009d00070001003d000000a00020
:104e70006c00070001003d000000a0009d0007003d
:104e80007c805700aeff07006fb097000000e00085
:104e90000700350010002000010020006011b8005c
:104ea00008047000898470000a0571008b85710008
:104eb0000c06e800f0032000800f5600c4ff340009
:104ec0006fb097000000e00006003d007fb2970041
:104ed0008fba97001fbb9700afbb97007c8057002d
:104ee00086ff07000802be000a03be006fa89700f5
:104ef0000000e00004003a002fb29700bfb2970014
:104f00004fb39700dfb397000400be000601be0058
:104f10004f0678004f05be004f04be000080fa0027
:104f200000000600881f780018002000881f780005
:104f300096ff07008f87e9004f0478000000060005
:104f4000801feb0091ff07008f87e900000006003b
:104f50000800fa00889fbe008a9fbe008c1f780060
:104f60006e00070005003d00430007003000070009
:104f70000c003d00330007000b003700e00f52002b
:104f8000e08f5a00e00f5b00e08f5b0006003d0001
:104f90000400be000601be0053ff07000205be006c
:104fa0000004be001c0020002c000700ddff0700ed
:104fb0000c00e000010032004bff07004f067800b4
:104fc0004f05be004f04be000080fa00000006003e
:104fd0000800fa00889fbe008a9fbe008c1f7800e0
:104fe0004e00070002003d001c00200022000700c8
:104ff0000f00070001003d00120007001700070026
:10500000cfff07000c00e0000100320036ff070070
:105010004f0678004f05be004f04be000080fa0026
:105020000000060090b79f000100d00080b79f00ed
:10503000e00f5400e08f5c00e00f5d00e08f5d004a
:10504000000006000800be000a01be0026ff07009f
:105050000205be000004be00000006000802be00fb
:105060000a03be005fb09700efb097007fb19700d2
:105070008fb99700000006001bff07000100070022
:1050800000000600b0b79f00c1b79f00d2b79f00d5
:10509000e3b79f00000006000400e1000588e1007e
:1050a0000690e1000798e10000000600c0b79f00ed
:1050b0000200d000b0b79f00afb097000100e00041
:1050c00000000600b0b79f000100d000a0b79f000d
:1050d0009fb097000100e00000000600a0b79f000d
:1050e0000100d00090b79f008fb097000100e00052
:1050f0000000060080b79f000804d0008984d20019
:105100000a85d2008b85d2005fb29700efb297007c
:105110007fb397008fbb970000000600d9ff070000
:105120000605be000404be000006eb00e00f5000c0
:10513000e08f5800e00f5900e08f59000000060092
:105140000800fa00889fbe008a9fbe008c1f78006e
:10515000f0b79f0081bf9f0092bf9f00a3bf9f0039
:105160006044b8006055b8000006eb000408a300d6
:10517000080032007fb097008fb897001fb99700e2
:10518000afb9970008044000898448000a05490027
:105190008b8549008703d1000683d3008582d30025
:1051a0000482d30010002000010020006011b8002c
:1051b00008006000898060000a0161008b81610045
:1051c0000000e000070032006000b800020020008c
:1051d000030028000402700085827000060371003d
:1051e000878371008b05d1000a85d3008984d300a1
:1051f0000884d3000c06e800f0032000800f56005e
:10520000daff34000400be000601be004f0678003d
:105210004f05be004f04be000080fa0000000600eb
:105220000800fa00889fbe008a9fbe001700070092
:105230000605be000404be00e00f5200e08f5a00d5
:10524000e00f5b00e08f5b0008003d000400be0043
:105250000601be00a4fe07000205be000004be0059
:105260000f000700a0fe0700080007000802be00ac
:105270000a03be000a000700b1ff07004f05be0089
:105280004f04be000080fa0000000600e0b79f0057
:10529000f1b79f0082bf9f0093bf9f0000000600f0
:1052a0006fb09700ffb097000fb997009fb99700b4
:1052b00000000600889fbe008a9fbe008c9fbe0033
:1052c0000404be000605be00809fbe00829fbe0093
:1052d00051010700040678000800be000a01be0064
:1052e0004d010700840678004f03be004f02be0048
:1052f0008d4f76007fb0970013003300f0ff2f0032
:105300008b8f6b0006003b000d0666000c00a700ab
:105310000a00370007f0a600100020000a0037003e
:10532000880f5200898f5a008a0f5b008b8f5b00b9
:10533000030039001000200001003e0000002000a2
:1053400007f0a7000000ea004f06be004f05be00b0
:105350004f04be0000000600800078005002be002e
:105360005003be004439de00f700b200f37f200096
:1053700003016100090032000218e10016003a0042
:10538000850172008301730083817300000820008f
:1053900015003a004000200013003700850172001c
:1053a000830173008381730005003a0004a8be00e6
:1053b00006a8be00100020000b0037000201e90023
:1053c0000402420085824a0006034b0087834b009b
:1053d0000748a300f9ff32000740a00004a8be0060
:1053e00006a8be00200020008000980092009800cf
:1053f00000000600680447000294be000094be004e
:10540000fc0447008694be008494be000900780026
:10541000d1ff070008007800cfff0700990078004f
:10542000814f70000b003b000800be000c0107001c
:105430004f00b10003003700f3ff2700f2ff2f00f9
:105440006110b9004f06be004f05be004f04be00fc
:105450000080fa0000000600889fbe0083047800e8
:105460000300e0002c00350003003c0000827000c7
:10547000040271002600320036432000c5002000df
:105480008383cf000a0039000541b1008283cf0039
:10549000070039000541b1008183cf0004003900c5
:1054a0000541b1008083cf00010039000541b10002
:1054b00085c353006022b800120032000a003b008e
:1054c00084827200610260008301d1000281d300f6
:1054d0008180d3000080d3000603e8008743e80002
:1054e000f7ff3a00070037000000400081804800c5
:1054f00002014900838149000603e9008743e9006e
:10550000f9ff3a009800070009f0a70003f0a00097
:105510004f04be000000060060001000e08018008c
:1055200060011900e0811900d3ff3b00033e2c000d
:10553000f7ff37002800fa00889fbe008a9fbe0050
:105540008c9fbe0007067800878669000c003b0030
:10555000030478008704780008f0a10009f0a10096
:10556000840f5000858f5800860f5900890f5c000a
:10557000030033000cf0a20001003a000cf0a1007f
:105580009cff07006400e1005f00320078014700e3
:105590006408e100610032006c0147007485570027
:1055a0003200be001201be003a04be001a05be0061
:1055b0001e039000be0a90008503530006003d00c4
:1055c0000004fd008104fd000205fd008305fd00cf
:1055d0008703ea00050378000df8a30004003200f9
:1055e00060041400e0841c0060051d00e0851d00bf
:1055f0006022b8007d0320000d38e1008006eb003a
:105600000b0039004433dd00f300b2008301730066
:1056100039003700848272000d027800e1066400d0
:105620008b85d1000a85d3008984d3000884d300f8
:105630008703e900f7ff3b0008004000898048002d
:105640000a0149008b81490004003b006000100002
:10565000e080180060011900e08119000358a300e0
:10566000090032008d827200848272006102600043
:105670008301d1000281d3008180d3000080d30058
:105680000603e8001b0037000348a30017003a0098
:105690000600e000170034000603e9000d00a30037
:1056a00000004800818048000201490083814900d0
:1056b0000348a3000f003a000600e0000900340090
:1056c0000603e90000004000818048000201490013
:1056d0008381490001003a000003eb000348a30066
:1056e000f5ff32006022b8000200370084827200a9
:1056f000618266001c00070003f0a1000cf0a70007
:1057000003f0a0004fff3700640147006408e10088
:1057100002003a000df8a30047ff3a003200be0035
:105720001201be0047ff37006022b80006022000c9
:105730000000d0008180d2000482d2008582d20095
:105740000000a0000202520083825a0003003b00c6
:105750000202420083824a000000a1000603e90021
:10576000f3ff3a0000000600180020005700200058
:10577000080453000d003d000600200097fc2f0098
:105780000740e1001e003400848272006102600064
:105790008301d1000281d3008180d3000080d30037
:1057a0000804e800f8ff3a004700200061046000a8
:1057b00005047400040464000d0032006100400020
:1057c000e080480060014900e081490003b8a5007d
:1057d000070032000603e8006538e10004003a00e3
:1057e0008301d1000281d3008180d3000080d300e7
:1057f000f87f20000830e10003003500080378003e
:105800006000b8006011b8004433dd00f300b2005e
:10581000830173000000060005ff27000582610078
:10582000070032000428e1000100320024000500d6
:105830000600070001003a004400050004080500c6
:1058400002000700f9ff3a00140005006f826100b2
:10585000810270008502710085027200000006005e
:10586000e48240001078a300070032006402400088
:105870001178a3003400be001401be000400320001
:105880000330a700000006003500be001501be0071
:105890000330a00000000600801f780023c1bf0075
:1058a0000080fb004700de000080fb0001003200aa
:1058b00023e1a9008900a9004f00780000400600fc
:1058c0000080eb0040158800a802a900400988006c
:1058d0002621ef002221ef0023c1bf0081cfb300ba
:1058e000014060006040b30023e1b7002421ef00d5
:1058f00060c0b3002561b70024e1a8008900a900b9
:10590000a8c0bf00014060000004a000a8e0b700ec
:105910009100a80000000600801f7800703e200063
:10592000b00e8800dc22a800dc22a900dc22a9003d
:10593000dc22a900fbff3700801f7800703e2000aa
:10594000b00e8800dc22a800dc22a800dc22a9001e
:10595000dc22a900fbff3700801f7800703e20008a
:10596000b00e8800dc22a800dc22a900dc22a800fe
:10597000dc22a900fbff3700a8a2ef00a802a900c3
:10598000c602a800c622a900c642a900c662a90094
:10599000c682a800c6a2a800cda2a900cdc2a800b8
:1059a000cde2a800d202a800d222a800d802a80006
:1059b000d822a900d842a900d862a900d882a9009b
:1059c000d8a2a900d902a800de42a800de62a80081
:1059d00000000600889fbe008a1f7800e6ff0700cf
:1059e000dc22a900eb0007000e0107008c60a80074
:1059f00080382100705088000e0ae200feff3a0055
:105a000080862b00801f780059ea07000e010700ee
:105a10006000b8002801070090882b00801f7800e4
:105a200053ea07000a02070000892b00801f780054
:105a30004fea0700a2ff070070892b00801f780043
:105a40004bea07009a030700208a2b00801f78008a
:105a500047ea0700d08a2b004dea0700308b2b0065
:105a6000801f7800d08c2b00801f7800b08e2b0018
:105a7000801f78003eea0700dc22a800d60107005c
:105a800081882000f00220009b010700f08757006a
:105a90000000e00004003200208f2b003cea0700e9
:105aa000eb0107000300370020912b0038ea0700c4
:105ab0001d04070010478000cf80de00b8f9070002
:105ac000d2cc2c00c3dc2300e0f90700809fbe008d
:105ad00080932b00801f780025ea07000005eb006b
:105ae0008004eb00e6875700100ae20071003200e4
:105af000102aef00dbc2bf000008a3005e003200e6
:105b0000dc08e20012003a006000b800ea0007007a
:105b100090952b00801f780015ea070010002000e8
:105b2000e046880030098000905088008828ef0007
:105b30008a28ef008c28ef008e28ef000005eb008c
:105b40008004eb00a828ef00aa28ef008f87e90067
:105b5000dc62a800945080003509800009005200e2
:105b6000cf80de00424480005344800000014100a9
:105b70008181490042448800534488000a805200d1
:105b8000cf80de0062448000734480000001410049
:105b9000818149006244880073448800840478004d
:105ba00005057800e40107006011b800c0448000da
:105bb000d1448000d9f907000000e000290034003a
:105bc000804480009144800001f0a100c244800024
:105bd000d3448000d1f907000000e0002100340028
:105be000dbc2bf00610460006000b800b2000700c3
:105bf000a828ef00aa28ef00a0962b00e4e90700f0
:105c0000dc22a900409c2000705088000e0ae200af
:105c1000feff3a00dc22a800409c20007050880063
:105c20000e0ae200feff3a00dc22a900409c2000a0
:105c3000705088000e0ae200feff3a00dc22a80045
:105c4000409c2000705088000e0ae200feff3a00df
:105c5000dbc2bf0061006000800f5400e4ff32002f
:105c600003003700c0468000d14680009200070044
:105c7000dc62a9000f003700e0468000e10f500011
:105c80000c003a006000b8008b000700dc28ef0031
:105c9000c0982b00801f7800b5e90700dc22a8001f
:105ca00000712200705088008f87e9000e0ae20020
:105cb000feff3a007c09e20001003200dc0307002d
:105cc000de08e20002003200dc22a90086ff370075
:105cd000dc22a80084ff37003600f800809fbe0059
:105ce000829fbe00849fbe00869fbe008520a900c3
:105cf0000ec2bf000008a3002000320090108000f8
:105d000080417800ea4f500019003200ed4f5000fa
:105d100003003a0010002000e04b88001700370015
:105d2000d14b800090972000808f500010003100f0
:105d300083587800d14b88008048eb00d243800024
:105d4000c200900062009000808f5000050031007a
:105d5000e8004100110078000358780080087800be
:105d6000030037000300fb00d143800094e90700e3
:105d70000ec2bf000008a300e0ff3a004f03be00c0
:105d80004f02be004f01be004f00be003600f900ba
:105d900000400600b0092000a010880000f02c0090
:105da00060108800f07f2f0070108800f0c3b300ef
:105db0000e62b600c0952000d04b88005c69ef00f1
:105dc0007c29ef008520a9008d20a8000000060096
:105dd000809fbe008460a90010478000e10f500042
:105de00002003c0020002000104788006150800025
:105df0008100e8006150880010478000808f5000cb
:105e0000030035000c2aef001000200080508800ad
:105e10000e0ae200010032000e2aed004f00be0023
:105e20000040060000022000200888000021ef004a
:105e3000650040001008880005e1a8000000060089
:105e400088e0a9000040060088e0a9008960a90058
:105e5000a7c0bf00f1c8b300014060000044a0002b
:105e6000a7e0b70001407800a960b60090e0a90063
:105e70009160a900ca01a900703e2000b00e880000
:105e8000301f2000200e8800c621ef0090f820006f
:105e9000400e8800a0f02f00600e8800800f2c00bc
:105ea000800e880020002000500e8800200028006e
:105eb000000e880000000600889fbe008a1f780040
:105ec0000004be006011b80014f907000000e000f3
:105ed000020035001a002000020037000005eb0028
:105ee00009f0a20052e32500e30d24000800be00e3
:105ef0000af907000000e0000200340058e3250022
:105f0000e90d2400803c200001002000a4f80700d7
:105f10000801be00cdf8070052e32500e30d240080
:105f200000f9070041f90700843c2000050020002b
:105f30000001520081815a00840f5100858f590061
:105f4000010034000401be00e00f5100e08f590051
:105f500002003c00120020000300200010518000cd
:105f6000800f550002003200823c20000300200018
:105f70001a518800b20e8800c250dd00dcc2bf009a
:105f80000024a10001407000dce2b7004f0578005a
:105f90004f04be00000006003200f80090018800a7
:105fa0006118e100040032007018e10002003200c4
:105fb000f0ff2f00040037003119ba008301e90017
:105fc000fdff3a000000eb003200f900000006007f
:105fd000849fbe004220a900440424006110e10017
:105fe0000a003200540424007010e100070032005f
:105ff00064042400f5ff2f000510e10003003200c7
:10600000f0ff2f004f02be00000006003200f80033
:10601000203b8800113b8800043b88004200f800c8
:10602000000e20004220b70050052000303b8800c1
:10603000a00a2000303b880061e7a80000000000b3
:106040000000000061e7af00feff37000000eb003a
:106050004200f9003200f9004f02be0000000600c5
:10606000841f78004220a900440024006118e10048
:1060700006003200540024007018e10003003200d2
:106080004f027800f0ff2f00000006003200f800f9
:1060900091018800821f78003019bb008301e9005c
:1060a000fdff3a00213b88004f017800123b880039
:1060b000043b88004200f800000e20004220b70098
:1060c00050052000303b8800a00a2000303b8800ab
:1060d00061e7a800000000000000000061e7af00d9
:1060e000feff37000000eb004200f9003200f9002b
:1060f0004f02780000000600800178000000eb00ed
:106100000001eb00e08f110004003d003100400071
:106110000201e800830f5100fcff3500000006007b
:10612000889fbe008a9fbe00eb0520008a88200061
:106130008004eb008a007800e0022000eeff0700f8
:106140000000ea002047880001c02f00898040003d
:1061500002012000f00720009dff07000000e00082
:1061600005003200891f7800e0992b00801f78001d
:106170007fe80700e487570002c02f0009014100b3
:1061800003012000f10720000a007800b4ff070097
:10619000000478000000e00005003200891f78004c
:1061a000b09b2b00801f780071e80700e487570040
:1061b0000902b0000a02b00000fe2f0080854500f1
:1061c0004240a900e0ff3c00080078004f05be00f7
:1061d0004f04be0000000600889fbe008a9fbe00dc
:1061e000eb0520008a8820008004eb0001c02f000e
:1061f00089804000030120000a017800f007200098
:1062000065ff0700000478000000e000060032008f
:10621000891f7800801f7800109e2b00801f780057
:1062200053e80700e68757000902b0000a02b000f1
:1062300000fe2f00808545004240a900ebff3c0096
:10624000080078004f05be004f04be0000000600a5
:10625000dbc2bf0061006000e04688008828ef00d4
:106260008a28ef008c28ef008e28ef006000b8002d
:106270008044880091448800c0468800d146880048
:1062800002002000a244880002f82300b2448800e3
:10629000c0448800d1448800e0448800f14488006c
:1062a0000045880011458800204588003145880058
:1062b0004045880051458800604588007145880048
:1062c0008045880091458800b428ef00b628ef008b
:1062d000de28ef00c0458800d1458800e0458800f1
:1062e000f1458800a2702d000246880032ba2300d2
:1062f00012468800204688003146880040468800c3
:1063000051468800604688007146880080468800b3
:106310009146880000002000a0468800000024006c
:10632000b046880010002000004788004000200090
:106330001047880000000600e6874700889fbe00df
:106340008a9fbe008c9fbe008e1f78001047800081
:10635000cf80de00026a28001300200054f80700f6
:106360008ff70700f205270093082300b7f707000f
:106370000006be000001be000000200001f823005e
:10638000e8f70700f0b79f0081bf9f00ee4680004e
:106390004044800051448000624480007344800087
:1063a00002005000838058007df707000005be0002
:1063b00080448800914488006011b800c044800087
:1063c000d144800040f807000000e00012003200d5
:1063d000c2448000d34480000a00be00cff707000b
:1063e0000000e00003003400ca448000db44800069
:1063f00009003700c8448000d944800009f0a20099
:106400000801be000a00be0031f807000000e000ed
:1064100001003d000805be00a2448000b344800096
:106420000a00be00bdf707000000e00005003400d0
:10643000a2448000b34480000a00be0026f8070092
:106440000b003700a8448000b94480000801be005a
:1064500003f0a2000a00be001df807000000e000e3
:1064600005003d000801be000a00be001bf8070041
:106470000005be00010037006055b8000e00e000c6
:1064800028003200de08e20008003a000c01be00dd
:106490000a00be006df707004245800053458000aa
:1064a0000ef8070040458800514588006011b8008b
:1064b000e0448000f144800003f807000000e000a1
:1064c0001a003200e2448000f3448000404580001e
:1064d0005145800091f707000000e00005003400fe
:1064e000e0448000f1448000404588005145880028
:1064f0000e003700e8448000f944800009f0a20053
:106500000801be004045800051458000f0f70700bb
:106510000000e00005003d0048458800594588001e
:1065200002003700a828ef00aa28ef00624580008b
:10653000734580000a00be00e7f707007fb19700af
:106540008fb9970041f707000004be00804588001e
:10655000914588006a4588007b4588006011b80035
:106560000045800011458000d7f707000000e000db
:106570001600320002458000134580000800be006e
:1065800066f707000000e0000500340000458000c9
:106590001145800080458800914588000b00370038
:1065a000084580001945800009f0a2000801be00de
:1065b0008045800091458000c5f707000000e0009d
:1065c00002003d00884588009945880048448000c5
:1065d00059448000a0458000b1458000000054006f
:1065e00081805c00eef607007fb197008fb99700bd
:1065f00016f707000006be00c0458800d145880098
:10660000a8458800b94588006011b8002045800081
:1066100031458000acf707000000e00016003200b2
:1066200022458000334580000c00be003bf7070088
:106630000000e00005003400204580003145800066
:10664000c0458800d14588000b00370028458000f0
:106650003945800009f0a2000801be00c045800055
:10666000d14580009af707000000e00002003d00dd
:10667000c8458800d94588000e00e0004800320077
:1066800002468000134680000a00be00eff60700b5
:10669000e2458000f345800090f707000004be004b
:1066a00042458000534580002046800031468000ee
:1066b000e6f607000001be000800be0087f70700ed
:1066c0000004be0082458000934580004046800063
:1066d00051468000ddf607000001be000800be0044
:1066e0007ef707000005be00404480005144800052
:1066f000abf607006246800073468000d3f60700c1
:106700000004be008246800093468000c0458000a1
:10671000d1458000cdf607000001be000800be0094
:106720006ef707000001be000a00be006bf707000d
:106730000005be006011b800a0468000b146800090
:1067400061f707000000e00017003200a246800059
:10675000b34680000a00be00f0f607000000e0002b
:1067600003003400aa468000bb46800009003700c1
:10677000a8468000b946800009f0a2000801be00ca
:106780000a00be0052f707000000e00005003d00cf
:106790000805be0010002000f04688000200370007
:1067a0006055b800de28ef00ca468800db46880046
:1067b0004f0778004f06be004f05be004f04be00d5
:1067c0006f00b10000000600142aec000000060073
:1067d00000478000122ab400000006000047800035
:1067e000122ab50000000600142aec000000060082
:1067f0003600f800809fbe00829fbe00849fbe00ce
:10680000869fbe008420a900b05080004200dd00b9
:106810006c006000a1168000e38060000100400071
:10682000b0508800160ad400019a200001004000f0
:1068300010007800000001004f03be004f02be00b0
:106840004f01be004f00be003600f90000400600b8
:106850003600f800809fbe00829fbe00849fbe006d
:10686000869fbe008480a900b05080004200dd00f9
:106870006c006000a1168000e38060000100400011
:10688000b0508800160ad400019a20000100400090
:1068900010007800000001004f03be004f02be0050
:1068a0004f01be004f00be003600f9000040060058
:1068b0004221ef004621ef008c20a9008c80a90026
:1068c0008420a9008480a90094c0bf00f1c8b3004f
:1068d000014060000064a00094e0b70096c0bf00d3
:1068e00081cfb300014060000024a00096e0b70013
:1068f00010002000100a8800300a8800122aef00d9
:10690000142aef0030002000a11680008080600073
:10691000b15088008c20a8008c80a80000000600e0
:10692000889fbe008a9fbe008c1f78000a0020004e
:106930000b0c2400ac002000c0a02b0094e6070044
:106940007c5088000a04be0009f0a2000a0037004b
:106950000800be0058fd07000e0ae200feff3a00e4
:106960007c508800d2cc2c00c3d423000800be0089
:10697000daf607000004be000a01be000800be00ef
:10698000d3f607000000e000f1ff34000a04be0067
:106990000a0037000800be0047fd07000e0ae200ab
:1069a000feff3a007c508800d2cc2c00c3d42300d8
:1069b0000800be00c8f607000004be000a01be00c1
:1069c00003f0a2000800be0054f607000000e0003b
:1069d000f0ff3d00dbff370060a32b006ce60700f3
:1069e00000712200705088000e0ae200feff3a009b
:1069f0000071220070508800160af800140af8008e
:106a0000120af80030a62b00801f780058e6070015
:106a1000dcc2bf00e88757000018a3000200320064
:106a2000dc22a900f0ff3700dc22a800eeff3700cf
:106a3000e0a82b0056e60700007122007050880085
:106a4000100ae2001b003200102aef009050800074
:106a5000cf80de00d2f5070074f6070040448800be
:106a60005144880030098000cf80de00ccf507005b
:106a70006ef6070060448800714488002efe07000f
:106a80006011b800c0468000d146800023f60700a0
:106a90000000e00002003400dc42a80001003700e2
:106aa000dc42a900c0468000d146800001f0a10070
:106ab00001fd07000e0ae200e1ff3a00007122002a
:106ac00070508800c0468000d1468000809fbe0084
:106ad0008044800091448000809fbe00604480001c
:106ae00071448000aef50700809fbe0040448000e6
:106af00051448000aaf50700809fbe00a1aa2b0088
:106b0000811f78001ae60700dcc2bf00f287570039
:106b10000018a30002003200dc22a900c8ff3700e1
:106b2000dc22a800c6ff370060ae2b0018e6070085
:106b3000dc08f800a0af2b00801f78000ce60700ef
:106b40000046800011468000809fbe00f1b02b00ff
:106b5000811f780006e6070020468000314680004d
:106b6000809fbe00a1b12b00811f780000e60700c6
:106b70004046800051468000809fbe0051b22b00ed
:106b8000811f7800fae507006046800071468000aa
:106b9000809fbe0001b32b00811f7800f4e5070041
:106ba0008046800091468000809fbe00d1b32b00bc
:106bb000811f7800eee50700e0fd2f008087470089
:106bc000a0448000b1448000809fbe00a1b42b008f
:106bd000811f7800e6e50700a0468000b1468000ee
:106be000809fbe00c1b52b00811f7800e0e5070043
:106bf000c0448000d1448000809fbe0001b72b00bc
:106c0000811f7800dae50700e008f80050b82b0093
:106c1000801f7800d6e50700e208f80021ba2b00b3
:106c2000811f7800d2e50700fa87570000000600b0
:106c30005cc9bf000000fb00cf80de000003b10094
:106c40000180b10082042000820f5000e08f5800c4
:106c5000f0003e00006001006f0037007700370051
:106c6000ec003700eb003700ea003700e90037009e
:106c7000e8003700e7003700e6003700e50037009e
:106c8000e4003700e3003700e2003700e10037009e
:106c9000e0003700df003700de003700dd0037009e
:106ca000dc003700db003700da003700d90037009e
:106cb000d8003700d7003700d6003700d50037009e
:106cc000d4003700d3003700d2003700d10037009e
:106cd000d0003700cf003700ce003700cd0037009e
:106ce000cc003700cb003700ca003700c90037009e
:106cf000c8003700c7003700c6003700c50037009e
:106d0000c4003700c3003700c2003700c10037009d
:106d1000c0003700bf003700be003700bd0037009d
:106d200016003700bb003700320037008200370002
:106d300054003700b7003700b60037002200370094
:106d4000b4003700b300370082003700440037003a
:106d5000b0003700af00370011003700ad0037003a
:106d6000ac0037007d00370061003700a900370014
:106d7000a8003700a70037004b0037005d49e2004c
:106d8000740032006011b8008000eb00d095200044
:106d9000b0e50700a0448800b1448800080037002f
:106da0005d49e2006b0032006011b8008000eb002a
:106db000d0952000a7e5070000468800114688000e
:106dc000d7fc0700630037005d49e2006100320034
:106dd0006011b8008000eb00d09520009de5070011
:106de0002046880031468800a828ef00aa28ef0036
:106df000f3ff37005d49e200560032006011b80031
:106e00008000eb00d095200092e507004046880006
:106e100051468800eaff37005d49e2004d0032002c
:106e20006011b8008000eb00d095200089e50700d4
:106e30006046880071468800e1ff37005d49e20046
:106e4000440032006011b8008000eb00d0952000b3
:106e500080e507008046880091468800d8ff37000b
:106e60005d49e2003b0032006011b8008000eb0099
:106e7000d095200077e50700a0468800b14688003d
:106e8000cfff37005d49e200320032006011b800e8
:106e90008000eb00d09520006ee50700c04488001c
:106ea000d1448800c6ff37005d49e2002900320066
:106eb0006011b8008000eb00d095200065e5070068
:106ec0005af50700004788000000e00002003c007f
:106ed000100020000047880000478000f00f50009d
:106ee000b7ff34000001200000478800b4ff3700de
:106ef0005d49e200170032006011b8008000eb002d
:106f0000d095200053e5070048f50700104788009a
:106f1000e10f500002003c002000200010478800d4
:106f20004106200010478000810f5000a4ff34006c
:106f300011478800a2ff37002601f8002601f8005b
:106f400010bc2b00801f780009e50700e68757007a
:106f50004e003700f4fe07004c003700a0bd2b00a8
:106f60000be507004044800051448000809fbe0034
:106f700071bf2b00811f7800fde407006044800092
:106f800071448000809fbe0061c02b00811f78008b
:106f9000f7e407008044800091448000809fbe0099
:106fa00061c12b00811f7800f1e40700404580009b
:106fb00051458000809fbe0021c22b00811f7800b8
:106fc000ebe407008045800091458000809fbe0073
:106fd00001c32b00811f7800e5e40700c046800054
:106fe000d1468000809fbe00e1c32b00811f780046
:106ff000dfe40700c2fd2f0082874700de08f800ab
:10700000b0c42b00801f7800d9e40700e487570044
:107010001e003700d0c52b00dde4070070c62b0032
:10702000dbe4070040c82b00d9e40700d0c92b00df
:10703000d7e40700a0cb2b00d5e40700e0cc2b0061
:10704000d3e4070020ce2b00d1e4070060cf2b0053
:10705000cfe40700a0d12b00cde40700b0d42b0073
:10706000cbe4070030d72b00c9e4070050da2b002f
:10707000c7e4070040dc2b00c5e4070080de2b00de
:10708000c3e40700a0e02b00c1e407007c29ef0067
:107090005c69ef00c0952000d04b8800d24380008f
:1070a000c200900062009000808f50000500310007
:1070b00068004100e2c3b3008258780001087800fc
:1070c00000000600d1438000e0032000bce437004c
:020000040000fa
:0200000401f009
:04000000f7ff000006
:020000040000fa
:0200000401f009
:04000400ff7f00007a
:020000040000fa
:0200000401f009
:04000800ffff0000f6
:020000040000fa
:10000800e83f0000e83f00009c2c00008c2c00001a
:10001800ac2c0000e83f0000e83f0000e83f00008b
:10002800e83f0000f8330000e83f0000e82e000039
:1000380028340000e83f0000e83f0000e83f0000e7
:10004800e83f00006c2e0000e83f0000e83f000099
:10005800e83f0000e83f0000e83f0000e83f0000fc
:10006800e83f0000e83f0000e83f0000e83f0000ec
:10007800e83f0000e83f0000e83f0000e83f0000dc
:10008800e83f0000e83f0000e83f0000e83f0000cc
:10009800e83f0000e83f0000e83f0000e83f0000bc
:1000a800e83f0000e83f0000e83f0000e83f0000ac
:1000b800e83f0000e83f0000e83f0000202f000074
:1000c8004c2c0000e83f0000e83f0000e83f00003b
:1000d800e83f0000e83f0000e83f0000e83f00007c
:1000e800e83f0000e83f0000e83f0000e83f00006c
:0800f800e83f0000e83f0000b2
:020000040000fa
:10010800e83f0000e83f00009c2c00008c2c000019
:10011800ac2c0000e83f0000e83f0000e83f00008a
:10012800e83f0000f8330000e83f0000e82e000038
:1001380028340000e83f0000e83f0000e83f0000e6
:10014800e83f00006c2e0000e83f0000e83f000098
:10015800e83f0000e83f0000e83f0000e83f0000fb
:10016800e83f0000e83f0000e83f0000e83f0000eb
:10017800e83f0000e83f0000e83f0000e83f0000db
:10018800e83f0000e83f0000e83f0000e83f0000cb
:10019800e83f0000e83f0000e83f0000e83f0000bb
:1001a800e83f0000e83f0000e83f0000e83f0000ab
:1001b800e83f0000e83f0000e83f0000202f000073
:1001c8004c2c0000e83f0000e83f0000e83f00003a
:1001d800e83f0000e83f0000e83f0000e83f00007b
:1001e800e83f0000e83f0000e83f0000e83f00006b
:0801f800e83f0000e83f0000b1
:020000040000fa
:1070d0000d0a0000506f0000776500007275000017
:1070e000702e00002e6900002f6f00002e2e000071
:1070f0002e75000061720000742e00002e2e00001c
:10710000746900006d650000722e00002e2e0000d4
:1071100000700000776d00002e2e00002e00000091
:1071200070690000642e00002e2e00000065000033
:107130006e6300006f640000657200002e2e000078
:107140002e00000063610000707400007572000082
:10715000652e00002e2e0000006400006f6e0000ff
:10716000650d0000002800006329000020320000a7
:10717000352d000053650000707400002d320000b2
:1071800030300000362000006279000020560000f8
:107190004537000049540000000d00000a6400005b
:1071a00073700000696300002d73000065720000b9
:1071b000766f000020620000792000004c2e000055
:1071c000476c000061690000737400006572000084
:1071d0000d0a00000025000073250000730a00005e
:1071e0000d0000004e6f000020760000616c000072
:1071f0006964000020730000657400007570000071
:10720000206600006f7500006e64000020690000b9
:107210006e20000045450000505200004f4d000018
:107220000d00000055730000696e0000672000002b
:107230007365000074750000702000006672000025
:107240006f6d00002065000065700000726f000027
:107250006d2e00002e2000003f200000666f000011
:1072600072200000686500006c7000000d000000d6
:1072700075730000696e000067200000256600003d
:107280006d7300002073000065720000766f0000cf
:10729000206c00006f6f000070200000696e00001d
:1072a0007465000072760000616c00000d0a000039
:1072b0000073000065720000766f00002d6500000d
:1072c0006e610000626c0000656400000d0a000041
:1072d0003e00000064720000697600006520000036
:1072e00066610000756c0000742e00002e2e0000f8
:1072f000206d00006178000065720000726f000070
:10730000722000006578000063650000656400007d
:10731000656400000d0000007365000072760000d7
:107320006f2d00006469000073610000626c000052
:10733000656400000d0a00003e000000636c000060
:10734000722000006f66000020650000657000007c
:10735000726f00006d20000066610000696c000023
:1073600065640000206100007420000025640000b6
:107370000d0a0000007700007269000074650000cb
:10738000207400006f20000065650000707200002e
:107390006f6d000020660000616900006c650000f0
:1073a0006420000061740000206f00006666000029
:1073b0007365000074200000256400000d0a0000c1
:1073c0000025000064200000726500006164000078
:1073d00020660000726f00006d20000065650000ef
:1073e000707200006f6d000020660000616900008f
:1073f0006c6500006420000061740000206f0000d4
:1074000066660000736500007420000025640000bb
:107410000d0a0000000000005465000073740000b5
:10742000696e000067200000637500007272000042
:10743000656e000074200000726100006d70000035
:107440007320000076690000612000007077000062
:107450006d200000616e0000642000004f500000ad
:1074600041350000343900000d0000005465000073
:1074700073740000696e00006720000070630000f4
:10748000206300006f6d00006d6100006e640000fd
:10749000206900006e7400006572000066610000e3
:1074a00063650000206f00006e200000494300006b
:1074b00031200000616e000064200000494300009c
:1074c000320d0000006300006d640000203d0000ec
:1074d000203000007825000030340000582c0000d7
:1074e0002065000072720000203d00002030000086
:1074f0007825000030340000582c00002062000085
:1075000069740000733d0000203000007825000001
:1075100030320000580d00000a00000054650000e1
:1075200073740000696e000067200000706900003d
:10753000642000006c6f00006f700000206f00007e
:107540007065000072610000746900006f6e0000d9
:107550000d000000636d0000642000003d2000006d
:10756000253600002e300000662c0000206600004a
:107570006565000064620000616300006b2000002c
:107580003d200000253600002e300000662000005f
:1075900065720000722000003d20000025360000ca
:1075a0002e300000662c0000206f00007574000073
:1075b00070750000742000003d200000253600009a
:1075c0002e300000660d00000a0000000d43000090
:1075d00075720000726500006e7400002053000098
:1075e00065740000746900006e670000733a000063
:1075f0000d00000073650000727600006f2000002f
:10760000656e0000616200006c650000642000008f
:107610003d200000256400000d0a00000028000045
:1076200070290000203d000020250000660d0000ac
:107630000a00000028690000292000003d20000009
:10764000256600000d0a00000028000064290000e3
:10765000203d000020250000660d00000a0000000b
:107660004646000028300000292000003d20000090
:10767000256600000d0a00000046000046280000b4
:1076800031290000203d000020250000660d00008b
:107690000a000000646500006164000028620000c8
:1076a000296100006e640000203d000020250000dc
:1076b000660d00000a000000286d0000296100002e
:1076c000782000004f750000747000007574000091
:1076d000203d000020250000660d00000a0000008b
:1076e0002866000029610000756c0000742000000d
:1076f00065720000726f0000722000003d200000e3
:10770000256600000d0a000000280000782900000e
:1077100070630000206300006d640000206d0000b5
:10772000756c000074690000706c000069650000f1
:10773000722000003d20000025680000750d00004b
:107740000a0000002874000029690000636b000033
:107750007320000070650000722000007365000057
:10776000727600006f20000063790000636c0000f7
:10777000653d000020250000687500000d0a00002e
:10778000000d0000656e0000636f0000646500007e
:10779000722000003d2000003078000025300000fd
:1077a00034580000203d000020250000640d00003a
:1077b0000a0000000d53000065720000766f0000a3
:1077c000204c00006f6f000070200000496e000028
:1077d00074650000726e0000616c000020430000c0
:1077e000616c0000637300003a0d0000006300004c
:1077f0006f6d00006d6100006e6400003a200000b3
:10780000256c0000640d00000a00000066650000a1
:107810006564000062610000636b00003a200000b4
:10782000256c0000640d00000a0000006572000075
:10783000726f0000723a000020250000660d000003
:107840000a00000065720000726f0000725f0000a5
:10785000693a000020250000660d00000a000000c3
:1078600065720000726f0000725f0000643a0000f1
:1078700020250000660d00000a0000006f75000062
:1078800074700000757400003a2000002566000046
:107890000d0a0000006c0000696d000069740000b2
:1078a0005f73000074610000746500003a200000fe
:1078b000256400000d0a0000000d00000a550000bc
:1078c00053410000474500003a0d000000700000e1
:1078d000207800002e7800002073000065740000fe
:1078e00020700000726f0000706f00007274000062
:1078f000696f00006e6100006c200000676100008d
:10790000696e00000d00000069200000782e000064
:10791000782000007365000074200000696e00008c
:107920007465000067720000616c00002067000051
:10793000616900006e0d0000006400002078000006
:107940002e780000207300006574000020640000a1
:107950006966000066650000726500006e740000d4
:10796000696100006c20000067610000696e000022
:107970000d00000030200000782e0000782000006c
:1079800073650000742000004646000030200000af
:1079900067610000696e00000d00000031200000ea
:1079a000782e00007820000073650000742000002d
:1079b000464600003120000067610000696e00004b
:1079c0000d00000062200000782e000078200000ea
:1079d00073650000742000006465000061640000ad
:1079e000626100006e6400000d0000006d20000068
:1079f000782e0000782000007365000074200000dd
:107a00006d610000782000006f7500007470000048
:107a1000757400002063000075720000726500003c
:107a20006e740000286100006d7000007329000072
:107a30000d00000066200000782e00007820000075
:107a400073650000742000006d6100007820000064
:107a500065720000726f0000722000006265000015
:107a6000666f00007265000020640000726900000b
:107a70007665000020660000617500006c740000ef
:107a800073280000636f0000756e000074730000bf
:107a9000290d000000780000206e0000202000006a
:107aa0002073000065740000207000006320000057
:107ab000636f00006d6d0000616e000064200000c7
:107ac0006d7500006c740000697000006c69000046
:107ad0006572000020280000312d000031360000c2
:107ae000290d000000740000206e0000202000001e
:107af000207300006574000020230000206f000048
:107b00006620000031300000307500007320000056
:107b100074690000636b0000732f00007065000043
:107b20007220000073650000727600006f20000074
:107b3000636100006c630000283200002d310000fa
:107b400030300000290d00000065000020700000aa
:107b5000726900006e7400002063000075720000fe
:107b6000726500006e740000206500006e63000006
:107b70006f64000065720000206300006f750000f4
:107b80006e7400000d0000006c2000007072000098
:107b9000696e0000742000006375000072720000be
:107ba000656e0000742000006c6f00006f700000b4
:107bb00020740000756e0000696e000067200000f0
:107bc000766100006c750000657300000d00000018
:107bd0007320000070720000696e000074200000c5
:107be000696e000074650000726e0000616c000038
:107bf000206c00006f6f000070200000636f0000b9
:107c00006d7000006f6e0000656e00007473000000
:107c10000d0000003f20000070720000696e00003f
:107c20007420000074680000697300002068000080
:0c7c3000656c0000700d000000000000fa
:020000040000fa
:107c3c005c09000022000000000000000c0a00009b
:107c4c000600000000000000220a000002000000f4
:107c5c0000000000880800005e000000000000002a
:107c6c00a00900002000000002000000e433e8003e
:107c7c0033ee3300f433ee0033e43300f433e80036
:107c8c0033e83300f433e40033ee3300f433ee0026
:107c9c0033e83300e4330000120a00000600000051
:107cac000000000000080000880000000200000036
:107cbc0001000000002608002708260008260800fe
:107ccc00260826000816080000000000000000002e
:107cdc000000000000000000000000000000000098
:107cec00000000000002080001014e00084f0800cf
:107cfc004e084e00084e08004e083e0008000000da
:107d0c000000000000000000000000000000000067
:107d1c000000000000000000000002000802020049
:107d2c007608770008760800760876000876080052
:107d3c0066080000000000000000000000000000c9
:107d4c000000000000000000000000000000000027
:107d5c000008280008500800000000000000000087
:107d6c000000000000000000fa09000012000000f2
:107d7c0002000000202b2d00233000000100020027
:107d8c000004000008001000000000005e0a000063
:107d9c000800000002000000686a6c00747a4c0055
:107dac0000000000c00900002000000002000000dc
:107dbc000a000000006400000000e800030000005e
:107dcc001027000000a0860001004000420f0000b8
:107ddc00809698000000e100f50500002e090000d7
:107dec002e00000002000000303132003334350028
:107dfc0036373800396162006364650066414200c1
:107e0c00434445004600000001020300040506003f
:107e1c00070809000a0b0c000d0e0f000a0b0c00d2
:107e2c000d0e0f0000000000e00900001a00000019
:107e3c00020000000000200041000000c8420000c9
:107e4c00401c460020bcbe004cca1b000e5aae00a3
:107e5c00c59d740005000000180a00000600000013
:107e6c00020000000000000000000200240a0000d4
:107e7c000200000000000000e608000048000000be
:107e8c000200000000000000000000002440000080
:107e9c00000000000000590040000000000000003d
:107eac0088c34000000000000084d7009741000008
:107ebc0080e0370079c3410043176e0005b5b5006b
:107ecc00b8934600f5f93f00e9034f00384d3200f6
:107edc001d30f900487782005a3cbf00737fdd00eb
:107eec004f1575002c0a0000320000000200000043
:107efc004e414e00006e61006e0049004e4600007f
:107f0c00696e66000030310032333400353637008c
:107f1c0038396100626364006566000030313200fc
:107f2c00333435003637380039414200434445007c
:107f3c00460000007e090000220000000200000044
:107f4c003031320033343500363738003961620055
:107f5c00636465006600300031323300343536001e
:107f6c0037383900414243004445460000000000c8
:107f7c001e0a0000040000000200000000000000c7
:107f8c0000000000260a00000200000002000000b1
:107f9c0000000000660a0000020000000200000061
:107fac0030000000280a000002000000020000005f
:107fbc00000000002a0a000002000000000000007f
:047fcc0000000000b1
:020000040000fa
:047fd0000000fe00af
:020000040000fa
:0200000400fffb
:10f8000000000000000000000000000000000000f8
:10f8100000000000000000000000000000000000e8
:10f8200000000000000000000000000000000000d8
:10f8300000000000000000000000000000000000c8
:10f8400000000000000000000000000000000000b8
:10f8500000000000000000000000000000000000a8
:10f860000000000000000000000000000000000098
:10f870000000000000000000000000000000000088
:10f880000000000000000000000000000000000078
:10f890000000000000000000000000000000000068
:10f8a0000000000000000000000000000000000058
:0cf8b0000000000000000000000000004c
:00000001FF
